{
  "contractName": "Exibit",
  "abi": [
    {
      "anonymous": false,
      "inputs": [
        {
          "indexed": false,
          "internalType": "address",
          "name": "cAddress",
          "type": "address"
        },
        {
          "indexed": false,
          "internalType": "string",
          "name": "name",
          "type": "string"
        },
        {
          "indexed": false,
          "internalType": "string",
          "name": "image",
          "type": "string"
        },
        {
          "indexed": false,
          "internalType": "address",
          "name": "creator",
          "type": "address"
        },
        {
          "indexed": false,
          "internalType": "string",
          "name": "metadata",
          "type": "string"
        }
      ],
      "name": "CollectionCreated",
      "type": "event"
    },
    {
      "anonymous": false,
      "inputs": [
        {
          "indexed": false,
          "internalType": "address",
          "name": "uAddress",
          "type": "address"
        },
        {
          "indexed": false,
          "internalType": "string",
          "name": "name",
          "type": "string"
        },
        {
          "indexed": false,
          "internalType": "string",
          "name": "image",
          "type": "string"
        },
        {
          "indexed": false,
          "internalType": "string",
          "name": "twitterUrl",
          "type": "string"
        },
        {
          "indexed": false,
          "internalType": "string",
          "name": "websiteUrl",
          "type": "string"
        }
      ],
      "name": "UserCreated",
      "type": "event"
    },
    {
      "stateMutability": "payable",
      "type": "receive"
    },
    {
      "inputs": [
        {
          "internalType": "string",
          "name": "name_",
          "type": "string"
        },
        {
          "internalType": "string",
          "name": "image_",
          "type": "string"
        },
        {
          "internalType": "string",
          "name": "twitterUrl_",
          "type": "string"
        },
        {
          "internalType": "string",
          "name": "websiteUrl_",
          "type": "string"
        }
      ],
      "name": "createUser",
      "outputs": [],
      "stateMutability": "nonpayable",
      "type": "function"
    },
    {
      "inputs": [
        {
          "internalType": "string",
          "name": "name_",
          "type": "string"
        },
        {
          "internalType": "string",
          "name": "symbol_",
          "type": "string"
        },
        {
          "internalType": "string",
          "name": "image_",
          "type": "string"
        },
        {
          "internalType": "string",
          "name": "metadata_",
          "type": "string"
        }
      ],
      "name": "createCollection",
      "outputs": [],
      "stateMutability": "nonpayable",
      "type": "function"
    },
    {
      "inputs": [
        {
          "internalType": "address",
          "name": "cAddress",
          "type": "address"
        },
        {
          "internalType": "address",
          "name": "nftOwner",
          "type": "address"
        },
        {
          "internalType": "address",
          "name": "newOwner",
          "type": "address"
        },
        {
          "internalType": "uint256",
          "name": "tokenId",
          "type": "uint256"
        }
      ],
      "name": "marketPlaceTransferFrom",
      "outputs": [],
      "stateMutability": "nonpayable",
      "type": "function"
    }
  ],
  "bytecode": "0x608060405234801561001057600080fd5b506135ed806100206000396000f3fe6080604052600436106200003c5760003560e01c80636f7fcddb1462000049578063c63d15fd1462000070578063fa159278146200009557600080fd5b366200004457005b600080fd5b3480156200005657600080fd5b506200006e620000683660046200033a565b620000ba565b005b3480156200007d57600080fd5b506200006e6200008f36600462000411565b62000101565b348015620000a257600080fd5b506200006e620000b43660046200033a565b620001f6565b7f3a92f8dece62f9b29e9012bd5b5bab2adf3044a1ce972e3d36c0a0b50fb4f36c3385858585604051620000f3959493929190620004ab565b60405180910390a150505050565b336001600160a01b03851614620001845760405162461bcd60e51b815260206004820152603f60248201527f4d61726b6574706c616365203a206d61726b6574506c6163655472616e73666560448201527f7246726f6d202d3e2043616c6c6572206973206e6f7420636f6e747261637400606482015260840160405180910390fd5b604051632142170760e11b81526001600160a01b0384811660048301528381166024830152604482018390528516906342842e0e90606401600060405180830381600087803b158015620001d757600080fd5b505af1158015620001ec573d6000803e3d6000fd5b5050505050505050565b6000848483336040516200020a9062000281565b6200021994939291906200051d565b604051809103906000f08015801562000236573d6000803e3d6000fd5b5090507f41adb74ebd8922361cafa5c6b63356985a765d4976cadd38650fef4cffb3c3c981868533866040516200027295949392919062000576565b60405180910390a15050505050565b612fde80620005da83390190565b634e487b7160e01b600052604160045260246000fd5b600082601f830112620002b757600080fd5b813567ffffffffffffffff80821115620002d557620002d56200028f565b604051601f8301601f19908116603f011681019082821181831017156200030057620003006200028f565b816040528381528660208588010111156200031a57600080fd5b836020870160208301376000602085830101528094505050505092915050565b600080600080608085870312156200035157600080fd5b843567ffffffffffffffff808211156200036a57600080fd5b6200037888838901620002a5565b955060208701359150808211156200038f57600080fd5b6200039d88838901620002a5565b94506040870135915080821115620003b457600080fd5b620003c288838901620002a5565b93506060870135915080821115620003d957600080fd5b50620003e887828801620002a5565b91505092959194509250565b80356001600160a01b03811681146200040c57600080fd5b919050565b600080600080608085870312156200042857600080fd5b6200043385620003f4565b93506200044360208601620003f4565b92506200045360408601620003f4565b9396929550929360600135925050565b6000815180845260005b818110156200048b576020818501810151868301820152016200046d565b506000602082860101526020601f19601f83011685010191505092915050565b6001600160a01b038616815260a060208201819052600090620004d19083018762000463565b8281036040840152620004e5818762000463565b90508281036060840152620004fb818662000463565b9050828103608084015262000511818562000463565b98975050505050505050565b60808152600062000532608083018762000463565b828103602084015262000546818762000463565b905082810360408401526200055c818662000463565b91505060018060a01b038316606083015295945050505050565b600060018060a01b03808816835260a060208401526200059a60a084018862000463565b8381036040850152620005ae818862000463565b905081861660608501528381036080850152620005cc818662000463565b999850505050505050505056fe60806040523480156200001157600080fd5b5060405162002fde38038062002fde833981016040819052620000349162000164565b60016000819055849084906200004b8382620002a6565b5060026200005a8282620002a6565b5050600980546001600160a01b0384166001600160a01b031991821617909155600b80549091163317905550600a620000948382620002a6565b505050505062000372565b634e487b7160e01b600052604160045260246000fd5b600082601f830112620000c757600080fd5b81516001600160401b0380821115620000e457620000e46200009f565b604051601f8301601f19908116603f011681019082821181831017156200010f576200010f6200009f565b816040528381526020925086838588010111156200012c57600080fd5b600091505b8382101562000150578582018301518183018401529082019062000131565b600093810190920192909252949350505050565b600080600080608085870312156200017b57600080fd5b84516001600160401b03808211156200019357600080fd5b620001a188838901620000b5565b95506020870151915080821115620001b857600080fd5b620001c688838901620000b5565b94506040870151915080821115620001dd57600080fd5b50620001ec87828801620000b5565b606087015190935090506001600160a01b03811681146200020c57600080fd5b939692955090935050565b600181811c908216806200022c57607f821691505b6020821081036200024d57634e487b7160e01b600052602260045260246000fd5b50919050565b601f821115620002a157600081815260208120601f850160051c810160208610156200027c5750805b601f850160051c820191505b818110156200029d5782815560010162000288565b5050505b505050565b81516001600160401b03811115620002c257620002c26200009f565b620002da81620002d3845462000217565b8462000253565b602080601f831160018114620003125760008415620002f95750858301515b600019600386901b1c1916600185901b1785556200029d565b600085815260208120601f198616915b82811015620003435788860151825594840194600190910190840162000322565b5085821015620003625787850151600019600388901b60f8161c191681555b5050505050600190811b01905550565b612c5c80620003826000396000f3fe6080604052600436106101355760003560e01c80638da5cb5b116100ab578063af345ec61161006f578063af345ec61461038c578063afc7fbd5146103ac578063b88d4fde146103cc578063c87b56dd146103ec578063e985e9c51461040c578063fe4867121461042c57600080fd5b80638da5cb5b1461030457806395d89b41146103245780639703ef35146103395780639979ef4514610359578063a22cb4651461036c57600080fd5b8063265aa621116100fd578063265aa6211461020b5780632af6c4481461026357806342842e0e146102765780636352211e146102965780636fe04294146102b657806370a08231146102d657600080fd5b806301ffc9a71461013a57806306fdde031461016f578063081812fc14610191578063095ea7b3146101c957806323b872dd146101eb575b600080fd5b34801561014657600080fd5b5061015a610155366004612272565b61044c565b60405190151581526020015b60405180910390f35b34801561017b57600080fd5b5061018461049e565b60405161016691906122df565b34801561019d57600080fd5b506101b16101ac3660046122f2565b610530565b6040516001600160a01b039091168152602001610166565b3480156101d557600080fd5b506101e96101e4366004612327565b610557565b005b3480156101f757600080fd5b506101e9610206366004612351565b610671565b34801561021757600080fd5b506102536102263660046122f2565b600c6020526000908152604090208054600182015460029092015460ff8083169361010090930416919084565b60405161016694939291906123a3565b6101e96102713660046122f2565b6106a2565b34801561028257600080fd5b506101e9610291366004612351565b610b87565b3480156102a257600080fd5b506101b16102b13660046122f2565b610ba2565b3480156102c257600080fd5b506101e96102d13660046123f5565b610c02565b3480156102e257600080fd5b506102f66102f1366004612439565b610ce7565b604051908152602001610166565b34801561031057600080fd5b506009546101b1906001600160a01b031681565b34801561033057600080fd5b50610184610d6d565b34801561034557600080fd5b506101e96103543660046122f2565b610d7c565b6101e96103673660046122f2565b610ef6565b34801561037857600080fd5b506101e9610387366004612454565b611153565b34801561039857600080fd5b506101e96103a7366004612487565b611162565b3480156103b857600080fd5b506101e96103c7366004612556565b611540565b3480156103d857600080fd5b506101e96103e736600461265d565b61177e565b3480156103f857600080fd5b506101846104073660046122f2565b6117b6565b34801561041857600080fd5b5061015a6104273660046126d9565b6118c6565b34801561043857600080fd5b506101846104473660046122f2565b6118f4565b60006001600160e01b031982166380ac58cd60e01b148061047d57506001600160e01b03198216635b5e139f60e01b145b8061049857506301ffc9a760e01b6001600160e01b03198316145b92915050565b6060600180546104ad90612703565b80601f01602080910402602001604051908101604052809291908181526020018280546104d990612703565b80156105265780601f106104fb57610100808354040283529160200191610526565b820191906000526020600020905b81548152906001019060200180831161050957829003601f168201915b5050505050905090565b600061053b826119f9565b506000908152600560205260409020546001600160a01b031690565b600061056282610ba2565b9050806001600160a01b0316836001600160a01b0316036105d45760405162461bcd60e51b815260206004820152602160248201527f4552433732313a20617070726f76616c20746f2063757272656e74206f776e656044820152603960f91b60648201526084015b60405180910390fd5b336001600160a01b03821614806105f057506105f081336118c6565b6106625760405162461bcd60e51b815260206004820152603e60248201527f4552433732313a20617070726f76652063616c6c6572206973206e6f7420746f60448201527f6b656e206f776e6572206e6f7220617070726f76656420666f7220616c6c000060648201526084016105cb565b61066c8383611a5b565b505050565b61067b3382611ac9565b6106975760405162461bcd60e51b81526004016105cb9061273d565b61066c838383611b27565b6002600054036106f45760405162461bcd60e51b815260206004820152601f60248201527f5265656e7472616e637947756172643a207265656e7472616e742063616c6c0060448201526064016105cb565b60026000558061070360085490565b8111156107225760405162461bcd60e51b81526004016105cb9061278b565b8161072c81610ba2565b6001600160a01b031633036107535760405162461bcd60e51b81526004016105cb906127e8565b6000838152600c60209081526040808320815160808101909252805460ff8082161515845292939192918401916101009091041660018111156107985761079861238d565b60018111156107a9576107a961238d565b81526001820154602082015260029091015460409091015290506000816020015160018111156107db576107db61238d565b1461084e5760405162461bcd60e51b815260206004820152603a60248201527f437573746f6d436f6c6c656374696f6e203a20706c616365426964202d3e204e60448201527f4654206973206c697374656420666f722062696473206f6e6c7900000000000060648201526084016105cb565b80516108c25760405162461bcd60e51b815260206004820152603a60248201527f437573746f6d436f6c6c656374696f6e203a206275794669786564507269636560448201527f4e4654202d3e204e4654206973206e6f7420666f722073616c6500000000000060648201526084016105cb565b8060400151341461094c5760405162461bcd60e51b815260206004820152604860248201527f437573746f6d436f6c6c656374696f6e203a206275794669786564507269636560448201527f4e4654202d3e20506c656173652073656e6420657861637420616d6f756e7420606482015267617320707269636560c01b608482015260a4016105cb565b600954606082015160408301516001600160a01b03909216916108fc916064916109769190612845565b6109809190612872565b6040518115909202916000818181858888f193505050501580156109a8573d6000803e3d6000fd5b50600b5460408201516001600160a01b03909116906108fc906109cd90606490612872565b6040518115909202916000818181858888f193505050501580156109f5573d6000803e3d6000fd5b506109ff84610ba2565b6001600160a01b03166108fc6064600184606001516064610a209190612886565b610a2a9190612886565b8460400151610a399190612845565b610a439190612872565b6040518115909202916000818181858888f19350505050158015610a6b573d6000803e3d6000fd5b50600b546001600160a01b031663c63d15fd30610a8787610ba2565b6040516001600160e01b031960e085901b1681526001600160a01b0392831660048201529116602482015233604482015260648101879052608401600060405180830381600087803b158015610adc57600080fd5b505af1158015610af0573d6000803e3d6000fd5b5050600b54610b0b92506001600160a01b0316905085610557565b6000848152600c60205260409020805460ff191690557fd150b62f2313c33b378415934acdff9ca2554598f9325710306b1c3e274b741b3085610b4d81610ba2565b3364e8d4a510008660400151610b639190612872565b604051610b74959493929190612899565b60405180910390a1505060016000555050565b61066c8383836040518060200160405280600081525061177e565b6000818152600360205260408120546001600160a01b0316806104985760405162461bcd60e51b8152602060048201526018602482015277115490cdcc8c4e881a5b9d985b1a59081d1bdad95b88125160421b60448201526064016105cb565b83610c0c60085490565b811115610c2b5760405162461bcd60e51b81526004016105cb9061278b565b84610c3581610ba2565b6001600160a01b0316336001600160a01b031614610c655760405162461bcd60e51b81526004016105cb906128e9565b600080878152600c6020526040902054610100900460ff166001811115610c8e57610c8e61238d565b03610cdf5784610cbe576000868152600c60205260409020805461ff001916610100178155600101839055610cdf565b6000868152600c60205260409020805460ff19168515151781556001018390555b505050505050565b60006001600160a01b038216610d515760405162461bcd60e51b815260206004820152602960248201527f4552433732313a2061646472657373207a65726f206973206e6f7420612076616044820152683634b21037bbb732b960b91b60648201526084016105cb565b506001600160a01b031660009081526004602052604090205490565b6060600280546104ad90612703565b80610d8660085490565b811115610da55760405162461bcd60e51b81526004016105cb9061278b565b8160016000828152600c6020526040902054610100900460ff166001811115610dd057610dd061238d565b14610ded5760405162461bcd60e51b81526004016105cb90612934565b6000838152600d602090815260408083203384529091528120549003610e615760405162461bcd60e51b8152602060048201526024808201527f437573746f6d436f6c6c656374696f6e202d3e204e6f20626964206279206361604482015263363632b960e11b60648201526084016105cb565b6000838152600d60209081526040808320338085529252808320805490849055905190926108fc841502918491818181858888f19350505050158015610eab573d6000803e3d6000fd5b50604080513081526020810186905233918101919091527fb4b7bfeef342bc38bed50c4af23900b8bfe1ef97943592a983c896816c109d9d906060015b60405180910390a150505050565b80610f0060085490565b811115610f1f5760405162461bcd60e51b81526004016105cb9061278b565b81610f2981610ba2565b6001600160a01b03163303610f505760405162461bcd60e51b81526004016105cb906127e8565b8260016000828152600c6020526040902054610100900460ff166001811115610f7b57610f7b61238d565b14610f985760405162461bcd60e51b81526004016105cb90612934565b6000848152600d60209081526040808320338452909152902054156110315760405162461bcd60e51b815260206004820152604360248201527f437573746f6d436f6c6c656374696f6e203a20706c616365426964202d3e204360448201527f616e2774206269642074776963652e2043616e63656c2050726576696f757320606482015262189a5960ea1b608482015260a4016105cb565b6000848152600c60205260409020600101543410156110c85760405162461bcd60e51b815260206004820152604760248201527f437573746f6d436f6c6c656374696f6e203a20706c616365426964202d3e204360448201527f616e277420626964206c6f776572207468616e206e66742773206d696e696d756064820152666d20707269636560c81b608482015260a4016105cb565b6000848152600d6020908152604080832033808552925290912034908190557f0158f5674dc243762459b88cfc91b10d2d1ef9d40821cca978c2b680aa44468291309187919061111e9064e8d4a5100090612872565b604051610ee894939291906001600160a01b039485168152602081019390935292166040820152606081019190915260800190565b61115e338383611cc3565b5050565b6002600054036111b45760405162461bcd60e51b815260206004820152601f60248201527f5265656e7472616e637947756172643a207265656e7472616e742063616c6c0060448201526064016105cb565b6002600055816111c360085490565b8111156111e25760405162461bcd60e51b81526004016105cb9061278b565b826111ec81610ba2565b6001600160a01b0316336001600160a01b03161461121c5760405162461bcd60e51b81526004016105cb906128e9565b8360016000828152600c6020526040902054610100900460ff1660018111156112475761124761238d565b146112645760405162461bcd60e51b81526004016105cb90612934565b6000858152600d602090815260408083206001600160a01b038816845290915281205490036112e65760405162461bcd60e51b815260206004820152602860248201527f437573746f6d436f6c6c656374696f6e202d3e204e6f2062696420627920757360448201526765722027746f5f2760c01b60648201526084016105cb565b6009546000868152600c6020908152604080832060020154600d83528184206001600160a01b038a8116865293529220549216916108fc9160649161132b9190612845565b6113359190612872565b6040518115909202916000818181858888f1935050505015801561135d573d6000803e3d6000fd5b50600b546000868152600d602090815260408083206001600160a01b0389811685529252909120549116906108fc9061139890606490612872565b6040518115909202916000818181858888f193505050501580156113c0573d6000803e3d6000fd5b506113ca85610ba2565b6001600160a01b03166108fc60646001600c60008a81526020019081526020016000206002015460646113fd9190612886565b6114079190612886565b6000898152600d602090815260408083206001600160a01b038c1684529091529020546114349190612845565b61143e9190612872565b6040518115909202916000818181858888f19350505050158015611466573d6000803e3d6000fd5b50611472338587610b87565b7fd150b62f2313c33b378415934acdff9ca2554598f9325710306b1c3e274b741b308661149e88610ba2565b6000898152600d602090815260408083206001600160a01b038c16845290915290205488906114d39064e8d4a5100090612872565b6040516114e4959493929190612899565b60405180910390a160408051308152602081018790526001600160a01b0386168183015290517fb4b7bfeef342bc38bed50c4af23900b8bfe1ef97943592a983c896816c109d9d9181900360600190a150506001600055505050565b6009546001600160a01b031633146115b75760405162461bcd60e51b815260206004820152603460248201527f437573746f6d436f6c6c656374696f6e203a206d696e74546f6b656e202d3e206044820152732737ba1031b7b63632b1ba34b7b71037bbb732b960611b60648201526084016105cb565b6115c5600880546001019055565b60006115d060085490565b90506115dc3382611d91565b6115e68188611dab565b841561160257600b54611602906001600160a01b031682610557565b6000818152600e6020526040902061161a83826129c7565b50604051806080016040528087151581526020018661163a57600161163d565b60005b600181111561164e5761164e61238d565b8152602080820187905260409182018690526000848152600c8252919091208251815490151560ff19821681178355928401519192839161ff001990911661ffff19909116176101008360018111156116a9576116a961238d565b021790555060408201518160010155606082015181600201559050507f88ababcbfaf84afef06ff7e208affbb3e07eee4832c81797c7ab029bb9212cb130828c8c8c8c6040516116fe96959493929190612a87565b60405180910390a1604080513081526020810183905260c081830181905260069082015265135a5b9d195960d21b60e082015260006060820181905233608083015260a082015290517fd150b62f2313c33b378415934acdff9ca2554598f9325710306b1c3e274b741b918190036101000190a150505050505050505050565b6117883383611ac9565b6117a45760405162461bcd60e51b81526004016105cb9061273d565b6117b084848484611e3e565b50505050565b60606117c1826119f9565b600082815260076020526040812080546117da90612703565b80601f016020809104026020016040519081016040528092919081815260200182805461180690612703565b80156118535780601f1061182857610100808354040283529160200191611853565b820191906000526020600020905b81548152906001019060200180831161183657829003601f168201915b50505050509050600061187160408051602081019091526000815290565b90508051600003611883575092915050565b8151156118b557808260405160200161189d929190612af5565b60405160208183030381529060405292505050919050565b6118be84611e71565b949350505050565b6001600160a01b03918216600090815260066020908152604080832093909416825291909152205460ff1690565b60608161190060085490565b81111561191f5760405162461bcd60e51b81526004016105cb9061278b565b8261192981610ba2565b6001600160a01b0316336001600160a01b0316146119595760405162461bcd60e51b81526004016105cb906128e9565b6000848152600e60205260409020805461197290612703565b80601f016020809104026020016040519081016040528092919081815260200182805461199e90612703565b80156119eb5780601f106119c0576101008083540402835291602001916119eb565b820191906000526020600020905b8154815290600101906020018083116119ce57829003601f168201915b505050505092505050919050565b6000818152600360205260409020546001600160a01b0316611a585760405162461bcd60e51b8152602060048201526018602482015277115490cdcc8c4e881a5b9d985b1a59081d1bdad95b88125160421b60448201526064016105cb565b50565b600081815260056020526040902080546001600160a01b0319166001600160a01b0384169081179091558190611a9082610ba2565b6001600160a01b03167f8c5be1e5ebec7d5bd14f71427d1e84f3dd0314c0f7b2291e5b200ac8c7c3b92560405160405180910390a45050565b600080611ad583610ba2565b9050806001600160a01b0316846001600160a01b03161480611afc5750611afc81856118c6565b806118be5750836001600160a01b0316611b1584610530565b6001600160a01b031614949350505050565b826001600160a01b0316611b3a82610ba2565b6001600160a01b031614611b9e5760405162461bcd60e51b815260206004820152602560248201527f4552433732313a207472616e736665722066726f6d20696e636f72726563742060448201526437bbb732b960d91b60648201526084016105cb565b6001600160a01b038216611c005760405162461bcd60e51b8152602060048201526024808201527f4552433732313a207472616e7366657220746f20746865207a65726f206164646044820152637265737360e01b60648201526084016105cb565b611c0b600082611a5b565b6001600160a01b0383166000908152600460205260408120805460019290611c34908490612886565b90915550506001600160a01b0382166000908152600460205260408120805460019290611c62908490612b24565b909155505060008181526003602052604080822080546001600160a01b0319166001600160a01b0386811691821790925591518493918716917fddf252ad1be2c89b69c2b068fc378daa952ba7f163c4a11628f55a4df523b3ef91a4505050565b816001600160a01b0316836001600160a01b031603611d245760405162461bcd60e51b815260206004820152601960248201527f4552433732313a20617070726f766520746f2063616c6c65720000000000000060448201526064016105cb565b6001600160a01b03838116600081815260066020908152604080832094871680845294825291829020805460ff191686151590811790915591519182527f17307eab39ab6107e8899845ad3d59bd9653f200f220920489ca2b5937696c31910160405180910390a3505050565b61115e828260405180602001604052806000815250611ee5565b6000828152600360205260409020546001600160a01b0316611e265760405162461bcd60e51b815260206004820152602e60248201527f45524337323155524953746f726167653a2055524920736574206f66206e6f6e60448201526d32bc34b9ba32b73a103a37b5b2b760911b60648201526084016105cb565b600082815260076020526040902061066c82826129c7565b611e49848484611b27565b611e5584848484611f18565b6117b05760405162461bcd60e51b81526004016105cb90612b37565b6060611e7c826119f9565b6000611e9360408051602081019091526000815290565b90506000815111611eb35760405180602001604052806000815250611ede565b80611ebd84612019565b604051602001611ece929190612af5565b6040516020818303038152906040525b9392505050565b611eef838361211a565b611efc6000848484611f18565b61066c5760405162461bcd60e51b81526004016105cb90612b37565b60006001600160a01b0384163b1561200e57604051630a85bd0160e11b81526001600160a01b0385169063150b7a0290611f5c903390899088908890600401612b89565b6020604051808303816000875af1925050508015611f97575060408051601f3d908101601f19168201909252611f9491810190612bc6565b60015b611ff4573d808015611fc5576040519150601f19603f3d011682016040523d82523d6000602084013e611fca565b606091505b508051600003611fec5760405162461bcd60e51b81526004016105cb90612b37565b805181602001fd5b6001600160e01b031916630a85bd0160e11b1490506118be565b506001949350505050565b6060816000036120405750506040805180820190915260018152600360fc1b602082015290565b8160005b811561206a578061205481612be3565b91506120639050600a83612872565b9150612044565b60008167ffffffffffffffff811115612085576120856124aa565b6040519080825280601f01601f1916602001820160405280156120af576020820181803683370190505b5090505b84156118be576120c4600183612886565b91506120d1600a86612bfc565b6120dc906030612b24565b60f81b8183815181106120f1576120f1612c10565b60200101906001600160f81b031916908160001a905350612113600a86612872565b94506120b3565b6001600160a01b0382166121705760405162461bcd60e51b815260206004820181905260248201527f4552433732313a206d696e7420746f20746865207a65726f206164647265737360448201526064016105cb565b6000818152600360205260409020546001600160a01b0316156121d55760405162461bcd60e51b815260206004820152601c60248201527f4552433732313a20746f6b656e20616c7265616479206d696e7465640000000060448201526064016105cb565b6001600160a01b03821660009081526004602052604081208054600192906121fe908490612b24565b909155505060008181526003602052604080822080546001600160a01b0319166001600160a01b03861690811790915590518392907fddf252ad1be2c89b69c2b068fc378daa952ba7f163c4a11628f55a4df523b3ef908290a45050565b6001600160e01b031981168114611a5857600080fd5b60006020828403121561228457600080fd5b8135611ede8161225c565b60005b838110156122aa578181015183820152602001612292565b50506000910152565b600081518084526122cb81602086016020860161228f565b601f01601f19169290920160200192915050565b602081526000611ede60208301846122b3565b60006020828403121561230457600080fd5b5035919050565b80356001600160a01b038116811461232257600080fd5b919050565b6000806040838503121561233a57600080fd5b6123438361230b565b946020939093013593505050565b60008060006060848603121561236657600080fd5b61236f8461230b565b925061237d6020850161230b565b9150604084013590509250925092565b634e487b7160e01b600052602160045260246000fd5b841515815260808101600285106123ca57634e487b7160e01b600052602160045260246000fd5b84602083015283604083015282606083015295945050505050565b8035801515811461232257600080fd5b6000806000806080858703121561240b57600080fd5b8435935061241b602086016123e5565b9250612429604086016123e5565b9396929550929360600135925050565b60006020828403121561244b57600080fd5b611ede8261230b565b6000806040838503121561246757600080fd5b6124708361230b565b915061247e602084016123e5565b90509250929050565b6000806040838503121561249a57600080fd5b8235915061247e6020840161230b565b634e487b7160e01b600052604160045260246000fd5b600067ffffffffffffffff808411156124db576124db6124aa565b604051601f8501601f19908116603f01168101908282118183101715612503576125036124aa565b8160405280935085815286868601111561251c57600080fd5b858560208301376000602087830101525050509392505050565b600082601f83011261254757600080fd5b611ede838335602085016124c0565b60008060008060008060008060006101208a8c03121561257557600080fd5b893567ffffffffffffffff8082111561258d57600080fd5b6125998d838e01612536565b9a5060208c01359150808211156125af57600080fd5b6125bb8d838e01612536565b995060408c01359150808211156125d157600080fd5b6125dd8d838e01612536565b985060608c01359150808211156125f357600080fd5b6125ff8d838e01612536565b975061260d60808d016123e5565b965061261b60a08d016123e5565b955060c08c0135945060e08c013593506101008c013591508082111561264057600080fd5b5061264d8c828d01612536565b9150509295985092959850929598565b6000806000806080858703121561267357600080fd5b61267c8561230b565b935061268a6020860161230b565b925060408501359150606085013567ffffffffffffffff8111156126ad57600080fd5b8501601f810187136126be57600080fd5b6126cd878235602084016124c0565b91505092959194509250565b600080604083850312156126ec57600080fd5b6126f58361230b565b915061247e6020840161230b565b600181811c9082168061271757607f821691505b60208210810361273757634e487b7160e01b600052602260045260246000fd5b50919050565b6020808252602e908201527f4552433732313a2063616c6c6572206973206e6f7420746f6b656e206f776e6560408201526d1c881b9bdc88185c1c1c9bdd995960921b606082015260800190565b60208082526039908201527f437573746f6d436f6c6c656374696f6e202d3e20746f6b656e496420646f657360408201527f6e277420636f72726573706f6e6420746f20616e79204e465400000000000000606082015260800190565b60208082526027908201527f437573746f6d436f6c6c656374696f6e202d3e2043616c6c6572206973206e666040820152663a1037bbb732b960c91b606082015260800190565b634e487b7160e01b600052601160045260246000fd5b80820281158282048414176104985761049861282f565b634e487b7160e01b600052601260045260246000fd5b6000826128815761288161285c565b500490565b818103818111156104985761049861282f565b6001600160a01b039586168152602081019490945260c0604085018190526004908501526314dbdb1960e21b60e08501529184166060840152909216608082015260a08101919091526101000190565b6020808252602b908201527f437573746f6d436f6c6c656374696f6e202d3e2043616c6c6572206973206e6f60408201526a3a1037333a1037bbb732b960a91b606082015260800190565b6020808252602d908201527f437573746f6d436f6c6c656374696f6e202d3e204e465420646f65736e27742060408201526c616c6c6f772062696464696e6760981b606082015260800190565b601f82111561066c57600081815260208120601f850160051c810160208610156129a85750805b601f850160051c820191505b81811015610cdf578281556001016129b4565b815167ffffffffffffffff8111156129e1576129e16124aa565b6129f5816129ef8454612703565b84612981565b602080601f831160018114612a2a5760008415612a125750858301515b600019600386901b1c1916600185901b178555610cdf565b600085815260208120601f198616915b82811015612a5957888601518255948401946001909101908401612a3a565b5085821015612a775787850151600019600388901b60f8161c191681555b5050505050600190811b01905550565b60018060a01b038716815285602082015260c060408201526000612aae60c08301876122b3565b8281036060840152612ac081876122b3565b90508281036080840152612ad481866122b3565b905082810360a0840152612ae881856122b3565b9998505050505050505050565b60008351612b0781846020880161228f565b835190830190612b1b81836020880161228f565b01949350505050565b808201808211156104985761049861282f565b60208082526032908201527f4552433732313a207472616e7366657220746f206e6f6e20455243373231526560408201527131b2b4bb32b91034b6b83632b6b2b73a32b960711b606082015260800190565b6001600160a01b0385811682528416602082015260408101839052608060608201819052600090612bbc908301846122b3565b9695505050505050565b600060208284031215612bd857600080fd5b8151611ede8161225c565b600060018201612bf557612bf561282f565b5060010190565b600082612c0b57612c0b61285c565b500690565b634e487b7160e01b600052603260045260246000fdfea26469706673582212201ee5237f71f75e9d8da639b5970bb73b76aaaca5eee98d312cbb5568ab52349864736f6c63430008110033a26469706673582212203d9b988dac98bc7d2ec737fcf8d3c104a214f031aa15ebd2c120b759d60365b364736f6c63430008110033",
  "immutableReferences": {},
  "source": "// SPDX-License-Identifier: MIT\npragma solidity ^0.8.7;\n\nimport \"./createCollection.sol\";\n\ncontract Exibit {\n    // ** User ** //\n\n    // On user creation\n    event UserCreated(\n        address uAddress,\n        string name,\n        string image,\n        string twitterUrl,\n        string websiteUrl\n    );\n\n    // Create/Update user profile\n    function createUser(\n        string memory name_,\n        string memory image_,\n        string memory twitterUrl_,\n        string memory websiteUrl_\n    ) public {\n        // Map User to address\n        // users[msg.sender] = User(name_, metadata_);\n\n        // Log event to subgraph\n        emit UserCreated(msg.sender, name_, image_, twitterUrl_, websiteUrl_);\n    }\n\n    // ** Custom Collection ** //\n\n    // On collection creation\n    event CollectionCreated(\n        address cAddress,\n        string name,\n        string image,\n        address creator,\n        string metadata\n    );\n\n    // Create and List collection on marketplace\n    function createCollection(\n        string memory name_,\n        string memory symbol_,\n        string memory image_,\n        string memory metadata_\n    ) public {\n        address cAddress = address(\n            new CreateCollection(name_, symbol_, metadata_, msg.sender)\n        );\n\n        // Log event to subgraph\n        emit CollectionCreated(cAddress, name_, image_, msg.sender, metadata_);\n    }\n\n    // To buy fixed price nfts\n    function marketPlaceTransferFrom(\n        address cAddress,\n        address nftOwner,\n        address newOwner,\n        uint256 tokenId\n    ) public {\n        // Check if caller is collection\n        require(\n            msg.sender == cAddress,\n            \"Marketplace : marketPlaceTransferFrom -> Caller is not contract\"\n        );\n\n        CreateCollection(cAddress).safeTransferFrom(\n            nftOwner,\n            newOwner,\n            tokenId\n        );\n    }\n\n    // To receive ether\n    // Function to receive Ether. msg.data must be empty\n    receive() external payable {}\n}\n",
  "sourcePath": "/home/aviral/devLearn/haxxx/nft-marketplace/contracts/Exibit.sol",
  "compiler": {
    "name": "solc",
    "version": "0.8.17+commit.8df45f5f.Emscripten.clang"
  },
  "schemaVersion": "3.4.10",
  "updatedAt": "2022-09-18T21:44:49.005Z",
  "devdoc": {
    "kind": "dev",
    "methods": {},
    "version": 1
  },
  "userdoc": {
    "kind": "user",
    "methods": {},
    "version": 1
  }
}