{
  "contractName": "CustomCollection",
  "abi": [
    {
      "inputs": [
        {
          "internalType": "string",
          "name": "name_",
          "type": "string"
        },
        {
          "internalType": "string",
          "name": "symbol_",
          "type": "string"
        },
        {
          "internalType": "string",
          "name": "collectionMetadata_",
          "type": "string"
        },
        {
          "internalType": "address",
          "name": "creator_",
          "type": "address"
        }
      ],
      "stateMutability": "nonpayable",
      "type": "constructor"
    },
    {
      "anonymous": false,
      "inputs": [
        {
          "indexed": true,
          "internalType": "address",
          "name": "owner",
          "type": "address"
        },
        {
          "indexed": true,
          "internalType": "address",
          "name": "approved",
          "type": "address"
        },
        {
          "indexed": true,
          "internalType": "uint256",
          "name": "tokenId",
          "type": "uint256"
        }
      ],
      "name": "Approval",
      "type": "event"
    },
    {
      "anonymous": false,
      "inputs": [
        {
          "indexed": true,
          "internalType": "address",
          "name": "owner",
          "type": "address"
        },
        {
          "indexed": true,
          "internalType": "address",
          "name": "operator",
          "type": "address"
        },
        {
          "indexed": false,
          "internalType": "bool",
          "name": "approved",
          "type": "bool"
        }
      ],
      "name": "ApprovalForAll",
      "type": "event"
    },
    {
      "anonymous": false,
      "inputs": [
        {
          "indexed": false,
          "internalType": "address",
          "name": "cAddress",
          "type": "address"
        },
        {
          "indexed": false,
          "internalType": "uint256",
          "name": "tokenId",
          "type": "uint256"
        },
        {
          "indexed": false,
          "internalType": "address",
          "name": "from",
          "type": "address"
        }
      ],
      "name": "BidCanceled",
      "type": "event"
    },
    {
      "anonymous": false,
      "inputs": [
        {
          "indexed": false,
          "internalType": "address",
          "name": "cAddress",
          "type": "address"
        },
        {
          "indexed": false,
          "internalType": "uint256",
          "name": "tokenId",
          "type": "uint256"
        },
        {
          "indexed": false,
          "internalType": "address",
          "name": "from",
          "type": "address"
        },
        {
          "indexed": false,
          "internalType": "uint256",
          "name": "price",
          "type": "uint256"
        }
      ],
      "name": "BidPlaced",
      "type": "event"
    },
    {
      "anonymous": false,
      "inputs": [
        {
          "indexed": false,
          "internalType": "address",
          "name": "cAddress",
          "type": "address"
        },
        {
          "indexed": false,
          "internalType": "uint256",
          "name": "tokenId",
          "type": "uint256"
        },
        {
          "indexed": false,
          "internalType": "string",
          "name": "name",
          "type": "string"
        },
        {
          "indexed": false,
          "internalType": "string",
          "name": "image",
          "type": "string"
        },
        {
          "indexed": false,
          "internalType": "string",
          "name": "properties",
          "type": "string"
        },
        {
          "indexed": false,
          "internalType": "string",
          "name": "metadata",
          "type": "string"
        }
      ],
      "name": "NFTCreated",
      "type": "event"
    },
    {
      "anonymous": false,
      "inputs": [
        {
          "indexed": false,
          "internalType": "address",
          "name": "cAddress",
          "type": "address"
        },
        {
          "indexed": false,
          "internalType": "uint256",
          "name": "tokenId",
          "type": "uint256"
        },
        {
          "indexed": false,
          "internalType": "string",
          "name": "eventType",
          "type": "string"
        },
        {
          "indexed": false,
          "internalType": "address",
          "name": "from",
          "type": "address"
        },
        {
          "indexed": false,
          "internalType": "address",
          "name": "to",
          "type": "address"
        },
        {
          "indexed": false,
          "internalType": "uint256",
          "name": "price",
          "type": "uint256"
        }
      ],
      "name": "NFTEvent",
      "type": "event"
    },
    {
      "anonymous": false,
      "inputs": [
        {
          "indexed": true,
          "internalType": "address",
          "name": "from",
          "type": "address"
        },
        {
          "indexed": true,
          "internalType": "address",
          "name": "to",
          "type": "address"
        },
        {
          "indexed": true,
          "internalType": "uint256",
          "name": "tokenId",
          "type": "uint256"
        }
      ],
      "name": "Transfer",
      "type": "event"
    },
    {
      "inputs": [
        {
          "internalType": "address",
          "name": "to",
          "type": "address"
        },
        {
          "internalType": "uint256",
          "name": "tokenId",
          "type": "uint256"
        }
      ],
      "name": "approve",
      "outputs": [],
      "stateMutability": "nonpayable",
      "type": "function"
    },
    {
      "inputs": [
        {
          "internalType": "address",
          "name": "owner",
          "type": "address"
        }
      ],
      "name": "balanceOf",
      "outputs": [
        {
          "internalType": "uint256",
          "name": "",
          "type": "uint256"
        }
      ],
      "stateMutability": "view",
      "type": "function"
    },
    {
      "inputs": [
        {
          "internalType": "uint256",
          "name": "",
          "type": "uint256"
        },
        {
          "internalType": "address",
          "name": "",
          "type": "address"
        }
      ],
      "name": "bids",
      "outputs": [
        {
          "internalType": "uint256",
          "name": "",
          "type": "uint256"
        }
      ],
      "stateMutability": "view",
      "type": "function"
    },
    {
      "inputs": [],
      "name": "collectionMetadataURI",
      "outputs": [
        {
          "internalType": "string",
          "name": "",
          "type": "string"
        }
      ],
      "stateMutability": "view",
      "type": "function"
    },
    {
      "inputs": [],
      "name": "creator",
      "outputs": [
        {
          "internalType": "address payable",
          "name": "",
          "type": "address"
        }
      ],
      "stateMutability": "view",
      "type": "function"
    },
    {
      "inputs": [
        {
          "internalType": "uint256",
          "name": "tokenId",
          "type": "uint256"
        }
      ],
      "name": "getApproved",
      "outputs": [
        {
          "internalType": "address",
          "name": "",
          "type": "address"
        }
      ],
      "stateMutability": "view",
      "type": "function"
    },
    {
      "inputs": [
        {
          "internalType": "address",
          "name": "owner",
          "type": "address"
        },
        {
          "internalType": "address",
          "name": "operator",
          "type": "address"
        }
      ],
      "name": "isApprovedForAll",
      "outputs": [
        {
          "internalType": "bool",
          "name": "",
          "type": "bool"
        }
      ],
      "stateMutability": "view",
      "type": "function"
    },
    {
      "inputs": [],
      "name": "marketPlaceAddress",
      "outputs": [
        {
          "internalType": "address payable",
          "name": "",
          "type": "address"
        }
      ],
      "stateMutability": "view",
      "type": "function"
    },
    {
      "inputs": [],
      "name": "name",
      "outputs": [
        {
          "internalType": "string",
          "name": "",
          "type": "string"
        }
      ],
      "stateMutability": "view",
      "type": "function"
    },
    {
      "inputs": [
        {
          "internalType": "uint256",
          "name": "",
          "type": "uint256"
        }
      ],
      "name": "nfts",
      "outputs": [
        {
          "internalType": "bool",
          "name": "forSale",
          "type": "bool"
        },
        {
          "internalType": "enum SellType",
          "name": "sellType",
          "type": "uint8"
        },
        {
          "internalType": "uint256",
          "name": "price",
          "type": "uint256"
        },
        {
          "internalType": "uint256",
          "name": "royalty",
          "type": "uint256"
        }
      ],
      "stateMutability": "view",
      "type": "function"
    },
    {
      "inputs": [
        {
          "internalType": "uint256",
          "name": "tokenId",
          "type": "uint256"
        }
      ],
      "name": "ownerOf",
      "outputs": [
        {
          "internalType": "address",
          "name": "",
          "type": "address"
        }
      ],
      "stateMutability": "view",
      "type": "function"
    },
    {
      "inputs": [
        {
          "internalType": "address",
          "name": "from",
          "type": "address"
        },
        {
          "internalType": "address",
          "name": "to",
          "type": "address"
        },
        {
          "internalType": "uint256",
          "name": "tokenId",
          "type": "uint256"
        }
      ],
      "name": "safeTransferFrom",
      "outputs": [],
      "stateMutability": "nonpayable",
      "type": "function"
    },
    {
      "inputs": [
        {
          "internalType": "address",
          "name": "from",
          "type": "address"
        },
        {
          "internalType": "address",
          "name": "to",
          "type": "address"
        },
        {
          "internalType": "uint256",
          "name": "tokenId",
          "type": "uint256"
        },
        {
          "internalType": "bytes",
          "name": "data",
          "type": "bytes"
        }
      ],
      "name": "safeTransferFrom",
      "outputs": [],
      "stateMutability": "nonpayable",
      "type": "function"
    },
    {
      "inputs": [
        {
          "internalType": "address",
          "name": "operator",
          "type": "address"
        },
        {
          "internalType": "bool",
          "name": "approved",
          "type": "bool"
        }
      ],
      "name": "setApprovalForAll",
      "outputs": [],
      "stateMutability": "nonpayable",
      "type": "function"
    },
    {
      "inputs": [
        {
          "internalType": "bytes4",
          "name": "interfaceId",
          "type": "bytes4"
        }
      ],
      "name": "supportsInterface",
      "outputs": [
        {
          "internalType": "bool",
          "name": "",
          "type": "bool"
        }
      ],
      "stateMutability": "view",
      "type": "function"
    },
    {
      "inputs": [],
      "name": "symbol",
      "outputs": [
        {
          "internalType": "string",
          "name": "",
          "type": "string"
        }
      ],
      "stateMutability": "view",
      "type": "function"
    },
    {
      "inputs": [
        {
          "internalType": "uint256",
          "name": "tokenId",
          "type": "uint256"
        }
      ],
      "name": "tokenURI",
      "outputs": [
        {
          "internalType": "string",
          "name": "",
          "type": "string"
        }
      ],
      "stateMutability": "view",
      "type": "function"
    },
    {
      "inputs": [
        {
          "internalType": "address",
          "name": "from",
          "type": "address"
        },
        {
          "internalType": "address",
          "name": "to",
          "type": "address"
        },
        {
          "internalType": "uint256",
          "name": "tokenId",
          "type": "uint256"
        }
      ],
      "name": "transferFrom",
      "outputs": [],
      "stateMutability": "nonpayable",
      "type": "function"
    },
    {
      "inputs": [
        {
          "internalType": "string",
          "name": "name_",
          "type": "string"
        },
        {
          "internalType": "string",
          "name": "image_",
          "type": "string"
        },
        {
          "internalType": "string",
          "name": "properties_",
          "type": "string"
        },
        {
          "internalType": "string",
          "name": "metadata_",
          "type": "string"
        },
        {
          "internalType": "bool",
          "name": "forSale_",
          "type": "bool"
        },
        {
          "internalType": "bool",
          "name": "isFixedPrice_",
          "type": "bool"
        },
        {
          "internalType": "uint256",
          "name": "price_",
          "type": "uint256"
        },
        {
          "internalType": "uint256",
          "name": "royalty_",
          "type": "uint256"
        },
        {
          "internalType": "string",
          "name": "unlockableString_",
          "type": "string"
        }
      ],
      "name": "mintNFT",
      "outputs": [],
      "stateMutability": "nonpayable",
      "type": "function"
    },
    {
      "inputs": [
        {
          "internalType": "string[]",
          "name": "names",
          "type": "string[]"
        },
        {
          "internalType": "string[]",
          "name": "images",
          "type": "string[]"
        },
        {
          "internalType": "string[]",
          "name": "properties",
          "type": "string[]"
        },
        {
          "internalType": "string[]",
          "name": "metadatas",
          "type": "string[]"
        },
        {
          "internalType": "bool",
          "name": "forSale_",
          "type": "bool"
        },
        {
          "internalType": "bool",
          "name": "isFixedPrice_",
          "type": "bool"
        },
        {
          "internalType": "uint256",
          "name": "price_",
          "type": "uint256"
        },
        {
          "internalType": "uint256",
          "name": "royalty_",
          "type": "uint256"
        },
        {
          "internalType": "uint256",
          "name": "nItems",
          "type": "uint256"
        }
      ],
      "name": "mintBatch",
      "outputs": [],
      "stateMutability": "nonpayable",
      "type": "function"
    },
    {
      "inputs": [
        {
          "internalType": "uint256",
          "name": "tokenId",
          "type": "uint256"
        }
      ],
      "name": "buyFixedPriceNFT",
      "outputs": [],
      "stateMutability": "payable",
      "type": "function"
    },
    {
      "inputs": [
        {
          "internalType": "uint256",
          "name": "tokenId",
          "type": "uint256"
        }
      ],
      "name": "placeBid",
      "outputs": [],
      "stateMutability": "payable",
      "type": "function"
    },
    {
      "inputs": [
        {
          "internalType": "uint256",
          "name": "tokenId",
          "type": "uint256"
        }
      ],
      "name": "cancelBid",
      "outputs": [],
      "stateMutability": "nonpayable",
      "type": "function"
    },
    {
      "inputs": [
        {
          "internalType": "uint256",
          "name": "tokenId",
          "type": "uint256"
        },
        {
          "internalType": "address",
          "name": "to_",
          "type": "address"
        }
      ],
      "name": "sellBiddingNFT",
      "outputs": [],
      "stateMutability": "nonpayable",
      "type": "function"
    },
    {
      "inputs": [
        {
          "internalType": "uint256",
          "name": "tokenId",
          "type": "uint256"
        }
      ],
      "name": "getUnlockableContent",
      "outputs": [
        {
          "internalType": "string",
          "name": "",
          "type": "string"
        }
      ],
      "stateMutability": "view",
      "type": "function"
    },
    {
      "inputs": [
        {
          "internalType": "uint256",
          "name": "tokenId",
          "type": "uint256"
        },
        {
          "internalType": "bool",
          "name": "setFixPrice",
          "type": "bool"
        },
        {
          "internalType": "bool",
          "name": "forSale",
          "type": "bool"
        },
        {
          "internalType": "uint256",
          "name": "newPrice",
          "type": "uint256"
        }
      ],
      "name": "modifyListingMechanism",
      "outputs": [],
      "stateMutability": "nonpayable",
      "type": "function"
    }
  ],
  "bytecode": "0x60806040523480156200001157600080fd5b50604051620058093803806200580983398181016040528101906200003791906200025f565b838360016000819055508160019080519060200190620000599291906200011a565b508060029080519060200190620000729291906200011a565b50505080600960006101000a81548173ffffffffffffffffffffffffffffffffffffffff021916908373ffffffffffffffffffffffffffffffffffffffff16021790555033600b60006101000a81548173ffffffffffffffffffffffffffffffffffffffff021916908373ffffffffffffffffffffffffffffffffffffffff16021790555081600a90805190602001906200010f9291906200011a565b505050505062000500565b8280546200012890620003f7565b90600052602060002090601f0160209004810192826200014c576000855562000198565b82601f106200016757805160ff191683800117855562000198565b8280016001018555821562000198579182015b82811115620001975782518255916020019190600101906200017a565b5b509050620001a79190620001ab565b5090565b5b80821115620001c6576000816000905550600101620001ac565b5090565b6000620001e1620001db8462000357565b6200032e565b9050828152602081018484840111156200020057620001ff620004c6565b5b6200020d848285620003c1565b509392505050565b6000815190506200022681620004e6565b92915050565b600082601f830112620002445762000243620004c1565b5b815162000256848260208601620001ca565b91505092915050565b600080600080608085870312156200027c576200027b620004d0565b5b600085015167ffffffffffffffff8111156200029d576200029c620004cb565b5b620002ab878288016200022c565b945050602085015167ffffffffffffffff811115620002cf57620002ce620004cb565b5b620002dd878288016200022c565b935050604085015167ffffffffffffffff811115620003015762000300620004cb565b5b6200030f878288016200022c565b9250506060620003228782880162000215565b91505092959194509250565b60006200033a6200034d565b90506200034882826200042d565b919050565b6000604051905090565b600067ffffffffffffffff82111562000375576200037462000492565b5b6200038082620004d5565b9050602081019050919050565b60006200039a82620003a1565b9050919050565b600073ffffffffffffffffffffffffffffffffffffffff82169050919050565b60005b83811015620003e1578082015181840152602081019050620003c4565b83811115620003f1576000848401525b50505050565b600060028204905060018216806200041057607f821691505b6020821081141562000427576200042662000463565b5b50919050565b6200043882620004d5565b810181811067ffffffffffffffff821117156200045a576200045962000492565b5b80604052505050565b7f4e487b7100000000000000000000000000000000000000000000000000000000600052602260045260246000fd5b7f4e487b7100000000000000000000000000000000000000000000000000000000600052604160045260246000fd5b600080fd5b600080fd5b600080fd5b600080fd5b6000601f19601f8301169050919050565b620004f1816200038d565b8114620004fd57600080fd5b50565b6152f980620005106000396000f3fe6080604052600436106101815760003560e01c806370a08231116100d1578063af345ec61161008a578063c87b56dd11610064578063c87b56dd14610575578063e985e9c5146105b2578063ed27107b146105ef578063fe4867121461061a57610181565b8063af345ec6146104fa578063afc7fbd514610523578063b88d4fde1461054c57610181565b806370a08231146103f95780637400deab1461043657806395d89b41146104615780639703ef351461048c5780639979ef45146104b5578063a22cb465146104d157610181565b8063265aa6211161013e57806342842e0e1161011857806342842e0e146103415780636352211e1461036a5780636c4026a4146103a75780636fe04294146103d057610181565b8063265aa621146102a85780632af6c448146102e85780633f1ffcec1461030457610181565b806301ffc9a71461018657806302d05d3f146101c357806306fdde03146101ee578063081812fc14610219578063095ea7b31461025657806323b872dd1461027f575b600080fd5b34801561019257600080fd5b506101ad60048036038101906101a8919061379b565b610657565b6040516101ba919061417d565b60405180910390f35b3480156101cf57600080fd5b506101d8610739565b6040516101e59190613f0c565b60405180910390f35b3480156101fa57600080fd5b5061020361075f565b60405161021091906141dd565b60405180910390f35b34801561022557600080fd5b50610240600480360381019061023b919061394b565b6107f1565b60405161024d9190613ef1565b60405180910390f35b34801561026257600080fd5b5061027d60048036038101906102789190613621565b610837565b005b34801561028b57600080fd5b506102a660048036038101906102a1919061350b565b61094f565b005b3480156102b457600080fd5b506102cf60048036038101906102ca919061394b565b6109af565b6040516102df9493929190614198565b60405180910390f35b61030260048036038101906102fd919061394b565b6109f9565b005b34801561031057600080fd5b5061032b60048036038101906103269190613978565b610eee565b604051610338919061451f565b60405180910390f35b34801561034d57600080fd5b506103686004803603810190610363919061350b565b610f13565b005b34801561037657600080fd5b50610391600480360381019061038c919061394b565b610f33565b60405161039e9190613ef1565b60405180910390f35b3480156103b357600080fd5b506103ce60048036038101906103c99190613661565b610fe5565b005b3480156103dc57600080fd5b506103f760048036038101906103f291906139b8565b6110a0565b005b34801561040557600080fd5b50610420600480360381019061041b919061349e565b61126b565b60405161042d919061451f565b60405180910390f35b34801561044257600080fd5b5061044b611323565b60405161045891906141dd565b60405180910390f35b34801561046d57600080fd5b506104766113b1565b60405161048391906141dd565b60405180910390f35b34801561049857600080fd5b506104b360048036038101906104ae919061394b565b611443565b005b6104cf60048036038101906104ca919061394b565b6116e1565b005b3480156104dd57600080fd5b506104f860048036038101906104f391906135e1565b6119c4565b005b34801561050657600080fd5b50610521600480360381019061051c9190613978565b6119da565b005b34801561052f57600080fd5b5061054a600480360381019061054591906137f5565b611ec4565b005b34801561055857600080fd5b50610573600480360381019061056e919061355e565b612126565b005b34801561058157600080fd5b5061059c6004803603810190610597919061394b565b612188565b6040516105a991906141dd565b60405180910390f35b3480156105be57600080fd5b506105d960048036038101906105d491906134cb565b61229b565b6040516105e6919061417d565b60405180910390f35b3480156105fb57600080fd5b5061060461232f565b6040516106119190613f0c565b60405180910390f35b34801561062657600080fd5b50610641600480360381019061063c919061394b565b612355565b60405161064e91906141dd565b60405180910390f35b60007f80ac58cd000000000000000000000000000000000000000000000000000000007bffffffffffffffffffffffffffffffffffffffffffffffffffffffff1916827bffffffffffffffffffffffffffffffffffffffffffffffffffffffff1916148061072257507f5b5e139f000000000000000000000000000000000000000000000000000000007bffffffffffffffffffffffffffffffffffffffffffffffffffffffff1916827bffffffffffffffffffffffffffffffffffffffffffffffffffffffff1916145b806107325750610731826124c0565b5b9050919050565b600960009054906101000a900473ffffffffffffffffffffffffffffffffffffffff1681565b60606001805461076e90614844565b80601f016020809104026020016040519081016040528092919081815260200182805461079a90614844565b80156107e75780601f106107bc576101008083540402835291602001916107e7565b820191906000526020600020905b8154815290600101906020018083116107ca57829003601f168201915b5050505050905090565b60006107fc8261252a565b6005600083815260200190815260200160002060009054906101000a900473ffffffffffffffffffffffffffffffffffffffff169050919050565b600061084282610f33565b90508073ffffffffffffffffffffffffffffffffffffffff168373ffffffffffffffffffffffffffffffffffffffff1614156108b3576040517f08c379a00000000000000000000000000000000000000000000000000000000081526004016108aa9061449f565b60405180910390fd5b8073ffffffffffffffffffffffffffffffffffffffff166108d2612575565b73ffffffffffffffffffffffffffffffffffffffff1614806109015750610900816108fb612575565b61229b565b5b610940576040517f08c379a00000000000000000000000000000000000000000000000000000000081526004016109379061439f565b60405180910390fd5b61094a838361257d565b505050565b61096061095a612575565b82612636565b61099f576040517f08c379a0000000000000000000000000000000000000000000000000000000008152600401610996906144df565b60405180910390fd5b6109aa8383836126cb565b505050565b600c6020528060005260406000206000915090508060000160009054906101000a900460ff16908060000160019054906101000a900460ff16908060010154908060020154905084565b60026000541415610a3f576040517f08c379a0000000000000000000000000000000000000000000000000000000008152600401610a36906144ff565b60405180910390fd5b600260008190555080610a526008612932565b811115610a94576040517f08c379a0000000000000000000000000000000000000000000000000000000008152600401610a8b906142bf565b60405180910390fd5b81610a9e81610f33565b73ffffffffffffffffffffffffffffffffffffffff163373ffffffffffffffffffffffffffffffffffffffff161415610b0c576040517f08c379a0000000000000000000000000000000000000000000000000000000008152600401610b039061441f565b60405180910390fd5b6000600c60008581526020019081526020016000206040518060800160405290816000820160009054906101000a900460ff161515151581526020016000820160019054906101000a900460ff166001811115610b6c57610b6b61497f565b5b6001811115610b7e57610b7d61497f565b5b815260200160018201548152602001600282015481525050905060006001811115610bac57610bab61497f565b5b81602001516001811115610bc357610bc261497f565b5b14610c03576040517f08c379a0000000000000000000000000000000000000000000000000000000008152600401610bfa906144bf565b60405180910390fd5b8060000151610c47576040517f08c379a0000000000000000000000000000000000000000000000000000000008152600401610c3e9061443f565b60405180910390fd5b80604001513414610c8d576040517f08c379a0000000000000000000000000000000000000000000000000000000008152600401610c84906143ff565b60405180910390fd5b600960009054906101000a900473ffffffffffffffffffffffffffffffffffffffff1673ffffffffffffffffffffffffffffffffffffffff166108fc606483606001518460400151610cdf91906146b7565b610ce99190614686565b9081150290604051600060405180830381858888f19350505050158015610d14573d6000803e3d6000fd5b50610d1e84610f33565b73ffffffffffffffffffffffffffffffffffffffff166108fc606483606001516064610d4a9190614711565b8460400151610d5991906146b7565b610d639190614686565b9081150290604051600060405180830381858888f19350505050158015610d8e573d6000803e3d6000fd5b50600b60009054906101000a900473ffffffffffffffffffffffffffffffffffffffff1673ffffffffffffffffffffffffffffffffffffffff1663c63d15fd30610dd787610f33565b33886040518563ffffffff1660e01b8152600401610df89493929190613f27565b600060405180830381600087803b158015610e1257600080fd5b505af1158015610e26573d6000803e3d6000fd5b50505050610e56600b60009054906101000a900473ffffffffffffffffffffffffffffffffffffffff1685610837565b6000600c600086815260200190815260200160002060000160006101000a81548160ff0219169083151502179055507fd150b62f2313c33b378415934acdff9ca2554598f9325710306b1c3e274b741b3085610eb187610f33565b3364e8d4a510008660400151610ec79190614686565b604051610ed89594939291906140b1565b60405180910390a1505050600160008190555050565b600d602052816000526040600020602052806000526040600020600091509150505481565b610f2e83838360405180602001604052806000815250612126565b505050565b6000806003600084815260200190815260200160002060009054906101000a900473ffffffffffffffffffffffffffffffffffffffff169050600073ffffffffffffffffffffffffffffffffffffffff168173ffffffffffffffffffffffffffffffffffffffff161415610fdc576040517f08c379a0000000000000000000000000000000000000000000000000000000008152600401610fd39061445f565b60405180910390fd5b80915050919050565b60005b81811015611094576110818a8281518110611006576110056149dd565b5b60200260200101518a8381518110611021576110206149dd565b5b60200260200101518a848151811061103c5761103b6149dd565b5b60200260200101518a8581518110611057576110566149dd565b5b60200260200101518a8a8a8a60405180606001604052806031815260200161529360319139611ec4565b808061108c906148a7565b915050610fe8565b50505050505050505050565b836110ab6008612932565b8111156110ed576040517f08c379a00000000000000000000000000000000000000000000000000000000081526004016110e4906142bf565b60405180910390fd5b846110f781610f33565b73ffffffffffffffffffffffffffffffffffffffff163373ffffffffffffffffffffffffffffffffffffffff1614611164576040517f08c379a000000000000000000000000000000000000000000000000000000000815260040161115b9061435f565b60405180910390fd5b600060018111156111785761117761497f565b5b600c600088815260200190815260200160002060000160019054906101000a900460ff1660018111156111ae576111ad61497f565b5b14156112635784611218576001600c600088815260200190815260200160002060000160016101000a81548160ff021916908360018111156111f3576111f261497f565b5b021790555082600c600088815260200190815260200160002060010181905550611262565b83600c600088815260200190815260200160002060000160006101000a81548160ff02191690831515021790555082600c6000888152602001908152602001600020600101819055505b5b505050505050565b60008073ffffffffffffffffffffffffffffffffffffffff168273ffffffffffffffffffffffffffffffffffffffff1614156112dc576040517f08c379a00000000000000000000000000000000000000000000000000000000081526004016112d39061431f565b60405180910390fd5b600460008373ffffffffffffffffffffffffffffffffffffffff1673ffffffffffffffffffffffffffffffffffffffff168152602001908152602001600020549050919050565b600a805461133090614844565b80601f016020809104026020016040519081016040528092919081815260200182805461135c90614844565b80156113a95780601f1061137e576101008083540402835291602001916113a9565b820191906000526020600020905b81548152906001019060200180831161138c57829003601f168201915b505050505081565b6060600280546113c090614844565b80601f01602080910402602001604051908101604052809291908181526020018280546113ec90614844565b80156114395780601f1061140e57610100808354040283529160200191611439565b820191906000526020600020905b81548152906001019060200180831161141c57829003601f168201915b5050505050905090565b8061144e6008612932565b811115611490576040517f08c379a0000000000000000000000000000000000000000000000000000000008152600401611487906142bf565b60405180910390fd5b816001808111156114a4576114a361497f565b5b600c600083815260200190815260200160002060000160019054906101000a900460ff1660018111156114da576114d961497f565b5b1461151a576040517f08c379a0000000000000000000000000000000000000000000000000000000008152600401611511906143df565b60405180910390fd5b6000600d600085815260200190815260200160002060003373ffffffffffffffffffffffffffffffffffffffff1673ffffffffffffffffffffffffffffffffffffffff1681526020019081526020016000205414156115ae576040517f08c379a00000000000000000000000000000000000000000000000000000000081526004016115a5906142ff565b60405180910390fd5b6000600d600085815260200190815260200160002060003373ffffffffffffffffffffffffffffffffffffffff1673ffffffffffffffffffffffffffffffffffffffff1681526020019081526020016000205490506000600d600086815260200190815260200160002060003373ffffffffffffffffffffffffffffffffffffffff1673ffffffffffffffffffffffffffffffffffffffff168152602001908152602001600020819055503373ffffffffffffffffffffffffffffffffffffffff166108fc829081150290604051600060405180830381858888f1935050505015801561169f573d6000803e3d6000fd5b507fb4b7bfeef342bc38bed50c4af23900b8bfe1ef97943592a983c896816c109d9d3085336040516116d393929190613fb8565b60405180910390a150505050565b806116ec6008612932565b81111561172e576040517f08c379a0000000000000000000000000000000000000000000000000000000008152600401611725906142bf565b60405180910390fd5b8161173881610f33565b73ffffffffffffffffffffffffffffffffffffffff163373ffffffffffffffffffffffffffffffffffffffff1614156117a6576040517f08c379a000000000000000000000000000000000000000000000000000000000815260040161179d9061441f565b60405180910390fd5b826001808111156117ba576117b961497f565b5b600c600083815260200190815260200160002060000160019054906101000a900460ff1660018111156117f0576117ef61497f565b5b14611830576040517f08c379a0000000000000000000000000000000000000000000000000000000008152600401611827906143df565b60405180910390fd5b6000600d600086815260200190815260200160002060003373ffffffffffffffffffffffffffffffffffffffff1673ffffffffffffffffffffffffffffffffffffffff16815260200190815260200160002054146118c3576040517f08c379a00000000000000000000000000000000000000000000000000000000081526004016118ba9061425f565b60405180910390fd5b600c60008581526020019081526020016000206001015434101561191c576040517f08c379a00000000000000000000000000000000000000000000000000000000081526004016119139061447f565b60405180910390fd5b34600d600086815260200190815260200160002060003373ffffffffffffffffffffffffffffffffffffffff1673ffffffffffffffffffffffffffffffffffffffff168152602001908152602001600020819055507f0158f5674dc243762459b88cfc91b10d2d1ef9d40821cca978c2b680aa44468230853364e8d4a51000346119a69190614686565b6040516119b69493929190613fef565b60405180910390a150505050565b6119d66119cf612575565b8383612940565b5050565b60026000541415611a20576040517f08c379a0000000000000000000000000000000000000000000000000000000008152600401611a17906144ff565b60405180910390fd5b600260008190555081611a336008612932565b811115611a75576040517f08c379a0000000000000000000000000000000000000000000000000000000008152600401611a6c906142bf565b60405180910390fd5b82611a7f81610f33565b73ffffffffffffffffffffffffffffffffffffffff163373ffffffffffffffffffffffffffffffffffffffff1614611aec576040517f08c379a0000000000000000000000000000000000000000000000000000000008152600401611ae39061435f565b60405180910390fd5b83600180811115611b0057611aff61497f565b5b600c600083815260200190815260200160002060000160019054906101000a900460ff166001811115611b3657611b3561497f565b5b14611b76576040517f08c379a0000000000000000000000000000000000000000000000000000000008152600401611b6d906143df565b60405180910390fd5b6000600d600087815260200190815260200160002060008673ffffffffffffffffffffffffffffffffffffffff1673ffffffffffffffffffffffffffffffffffffffff168152602001908152602001600020541415611c0a576040517f08c379a0000000000000000000000000000000000000000000000000000000008152600401611c019061437f565b60405180910390fd5b600960009054906101000a900473ffffffffffffffffffffffffffffffffffffffff1673ffffffffffffffffffffffffffffffffffffffff166108fc6064600c600089815260200190815260200160002060020154600d60008a815260200190815260200160002060008973ffffffffffffffffffffffffffffffffffffffff1673ffffffffffffffffffffffffffffffffffffffff16815260200190815260200160002054611cba91906146b7565b611cc49190614686565b9081150290604051600060405180830381858888f19350505050158015611cef573d6000803e3d6000fd5b50611cf985610f33565b73ffffffffffffffffffffffffffffffffffffffff166108fc6064600c6000898152602001908152602001600020600201546064611d379190614711565b600d60008a815260200190815260200160002060008973ffffffffffffffffffffffffffffffffffffffff1673ffffffffffffffffffffffffffffffffffffffff16815260200190815260200160002054611d9291906146b7565b611d9c9190614686565b9081150290604051600060405180830381858888f19350505050158015611dc7573d6000803e3d6000fd5b50611dd3338587610f13565b7fd150b62f2313c33b378415934acdff9ca2554598f9325710306b1c3e274b741b3086611dff88610f33565b8764e8d4a51000600d60008c815260200190815260200160002060008b73ffffffffffffffffffffffffffffffffffffffff1673ffffffffffffffffffffffffffffffffffffffff16815260200190815260200160002054611e619190614686565b604051611e729594939291906140b1565b60405180910390a17fb4b7bfeef342bc38bed50c4af23900b8bfe1ef97943592a983c896816c109d9d308686604051611ead93929190613fb8565b60405180910390a150505060016000819055505050565b600960009054906101000a900473ffffffffffffffffffffffffffffffffffffffff1673ffffffffffffffffffffffffffffffffffffffff163373ffffffffffffffffffffffffffffffffffffffff1614611f54576040517f08c379a0000000000000000000000000000000000000000000000000000000008152600401611f4b906142df565b60405180910390fd5b611f5e6008612aad565b6000611f6a6008612932565b9050611f763382612ac3565b611f808188612ae1565b8415611fb357611fb2600b60009054906101000a900473ffffffffffffffffffffffffffffffffffffffff1682610837565b5b81600e60008381526020019081526020016000209080519060200190611fda9291906131f6565b506040518060800160405280871515815260200186611ffa576001611ffd565b60005b600181111561200f5761200e61497f565b5b815260200185815260200184815250600c600083815260200190815260200160002060008201518160000160006101000a81548160ff02191690831515021790555060208201518160000160016101000a81548160ff0219169083600181111561207c5761207b61497f565b5b021790555060408201518160010155606082015181600201559050507f88ababcbfaf84afef06ff7e208affbb3e07eee4832c81797c7ab029bb9212cb130828c8c8c8c6040516120d196959493929190614034565b60405180910390a17fd150b62f2313c33b378415934acdff9ca2554598f9325710306b1c3e274b741b30826000336000604051612112959493929190614117565b60405180910390a150505050505050505050565b612137612131612575565b83612636565b612176576040517f08c379a000000000000000000000000000000000000000000000000000000000815260040161216d906144df565b60405180910390fd5b61218284848484612b55565b50505050565b60606121938261252a565b60006007600084815260200190815260200160002080546121b390614844565b80601f01602080910402602001604051908101604052809291908181526020018280546121df90614844565b801561222c5780601f106122015761010080835404028352916020019161222c565b820191906000526020600020905b81548152906001019060200180831161220f57829003601f168201915b50505050509050600061223d612bb1565b9050600081511415612253578192505050612296565b600082511115612288578082604051602001612270929190613ecd565b60405160208183030381529060405292505050612296565b61229184612bc8565b925050505b919050565b6000600660008473ffffffffffffffffffffffffffffffffffffffff1673ffffffffffffffffffffffffffffffffffffffff16815260200190815260200160002060008373ffffffffffffffffffffffffffffffffffffffff1673ffffffffffffffffffffffffffffffffffffffff16815260200190815260200160002060009054906101000a900460ff16905092915050565b600b60009054906101000a900473ffffffffffffffffffffffffffffffffffffffff1681565b6060816123626008612932565b8111156123a4576040517f08c379a000000000000000000000000000000000000000000000000000000000815260040161239b906142bf565b60405180910390fd5b826123ae81610f33565b73ffffffffffffffffffffffffffffffffffffffff163373ffffffffffffffffffffffffffffffffffffffff161461241b576040517f08c379a00000000000000000000000000000000000000000000000000000000081526004016124129061435f565b60405180910390fd5b600e6000858152602001908152602001600020805461243990614844565b80601f016020809104026020016040519081016040528092919081815260200182805461246590614844565b80156124b25780601f10612487576101008083540402835291602001916124b2565b820191906000526020600020905b81548152906001019060200180831161249557829003601f168201915b505050505092505050919050565b60007f01ffc9a7000000000000000000000000000000000000000000000000000000007bffffffffffffffffffffffffffffffffffffffffffffffffffffffff1916827bffffffffffffffffffffffffffffffffffffffffffffffffffffffff1916149050919050565b61253381612c30565b612572576040517f08c379a00000000000000000000000000000000000000000000000000000000081526004016125699061445f565b60405180910390fd5b50565b600033905090565b816005600083815260200190815260200160002060006101000a81548173ffffffffffffffffffffffffffffffffffffffff021916908373ffffffffffffffffffffffffffffffffffffffff160217905550808273ffffffffffffffffffffffffffffffffffffffff166125f083610f33565b73ffffffffffffffffffffffffffffffffffffffff167f8c5be1e5ebec7d5bd14f71427d1e84f3dd0314c0f7b2291e5b200ac8c7c3b92560405160405180910390a45050565b60008061264283610f33565b90508073ffffffffffffffffffffffffffffffffffffffff168473ffffffffffffffffffffffffffffffffffffffff1614806126845750612683818561229b565b5b806126c257508373ffffffffffffffffffffffffffffffffffffffff166126aa846107f1565b73ffffffffffffffffffffffffffffffffffffffff16145b91505092915050565b8273ffffffffffffffffffffffffffffffffffffffff166126eb82610f33565b73ffffffffffffffffffffffffffffffffffffffff1614612741576040517f08c379a00000000000000000000000000000000000000000000000000000000081526004016127389061421f565b60405180910390fd5b600073ffffffffffffffffffffffffffffffffffffffff168273ffffffffffffffffffffffffffffffffffffffff1614156127b1576040517f08c379a00000000000000000000000000000000000000000000000000000000081526004016127a89061427f565b60405180910390fd5b6127bc838383612c9c565b6127c760008261257d565b6001600460008573ffffffffffffffffffffffffffffffffffffffff1673ffffffffffffffffffffffffffffffffffffffff16815260200190815260200160002060008282546128179190614711565b925050819055506001600460008473ffffffffffffffffffffffffffffffffffffffff1673ffffffffffffffffffffffffffffffffffffffff168152602001908152602001600020600082825461286e9190614630565b92505081905550816003600083815260200190815260200160002060006101000a81548173ffffffffffffffffffffffffffffffffffffffff021916908373ffffffffffffffffffffffffffffffffffffffff160217905550808273ffffffffffffffffffffffffffffffffffffffff168473ffffffffffffffffffffffffffffffffffffffff167fddf252ad1be2c89b69c2b068fc378daa952ba7f163c4a11628f55a4df523b3ef60405160405180910390a461292d838383612ca1565b505050565b600081600001549050919050565b8173ffffffffffffffffffffffffffffffffffffffff168373ffffffffffffffffffffffffffffffffffffffff1614156129af576040517f08c379a00000000000000000000000000000000000000000000000000000000081526004016129a69061429f565b60405180910390fd5b80600660008573ffffffffffffffffffffffffffffffffffffffff1673ffffffffffffffffffffffffffffffffffffffff16815260200190815260200160002060008473ffffffffffffffffffffffffffffffffffffffff1673ffffffffffffffffffffffffffffffffffffffff16815260200190815260200160002060006101000a81548160ff0219169083151502179055508173ffffffffffffffffffffffffffffffffffffffff168373ffffffffffffffffffffffffffffffffffffffff167f17307eab39ab6107e8899845ad3d59bd9653f200f220920489ca2b5937696c3183604051612aa0919061417d565b60405180910390a3505050565b6001816000016000828254019250508190555050565b612add828260405180602001604052806000815250612ca6565b5050565b612aea82612c30565b612b29576040517f08c379a0000000000000000000000000000000000000000000000000000000008152600401612b209061433f565b60405180910390fd5b80600760008481526020019081526020016000209080519060200190612b509291906131f6565b505050565b612b608484846126cb565b612b6c84848484612d01565b612bab576040517f08c379a0000000000000000000000000000000000000000000000000000000008152600401612ba2906141ff565b60405180910390fd5b50505050565b606060405180602001604052806000815250905090565b6060612bd38261252a565b6000612bdd612bb1565b90506000815111612bfd5760405180602001604052806000815250612c28565b80612c0784612e98565b604051602001612c18929190613ecd565b6040516020818303038152906040525b915050919050565b60008073ffffffffffffffffffffffffffffffffffffffff166003600084815260200190815260200160002060009054906101000a900473ffffffffffffffffffffffffffffffffffffffff1673ffffffffffffffffffffffffffffffffffffffff1614159050919050565b505050565b505050565b612cb08383612ff9565b612cbd6000848484612d01565b612cfc576040517f08c379a0000000000000000000000000000000000000000000000000000000008152600401612cf3906141ff565b60405180910390fd5b505050565b6000612d228473ffffffffffffffffffffffffffffffffffffffff166131d3565b15612e8b578373ffffffffffffffffffffffffffffffffffffffff1663150b7a02612d4b612575565b8786866040518563ffffffff1660e01b8152600401612d6d9493929190613f6c565b602060405180830381600087803b158015612d8757600080fd5b505af1925050508015612db857506040513d601f19601f82011682018060405250810190612db591906137c8565b60015b612e3b573d8060008114612de8576040519150601f19603f3d011682016040523d82523d6000602084013e612ded565b606091505b50600081511415612e33576040517f08c379a0000000000000000000000000000000000000000000000000000000008152600401612e2a906141ff565b60405180910390fd5b805181602001fd5b63150b7a0260e01b7bffffffffffffffffffffffffffffffffffffffffffffffffffffffff1916817bffffffffffffffffffffffffffffffffffffffffffffffffffffffff191614915050612e90565b600190505b949350505050565b60606000821415612ee0576040518060400160405280600181526020017f30000000000000000000000000000000000000000000000000000000000000008152509050612ff4565b600082905060005b60008214612f12578080612efb906148a7565b915050600a82612f0b9190614686565b9150612ee8565b60008167ffffffffffffffff811115612f2e57612f2d614a0c565b5b6040519080825280601f01601f191660200182016040528015612f605781602001600182028036833780820191505090505b5090505b60008514612fed57600182612f799190614711565b9150600a85612f8891906148f0565b6030612f949190614630565b60f81b818381518110612faa57612fa96149dd565b5b60200101907effffffffffffffffffffffffffffffffffffffffffffffffffffffffffffff1916908160001a905350600a85612fe69190614686565b9450612f64565b8093505050505b919050565b600073ffffffffffffffffffffffffffffffffffffffff168273ffffffffffffffffffffffffffffffffffffffff161415613069576040517f08c379a0000000000000000000000000000000000000000000000000000000008152600401613060906143bf565b60405180910390fd5b61307281612c30565b156130b2576040517f08c379a00000000000000000000000000000000000000000000000000000000081526004016130a99061423f565b60405180910390fd5b6130be60008383612c9c565b6001600460008473ffffffffffffffffffffffffffffffffffffffff1673ffffffffffffffffffffffffffffffffffffffff168152602001908152602001600020600082825461310e9190614630565b92505081905550816003600083815260200190815260200160002060006101000a81548173ffffffffffffffffffffffffffffffffffffffff021916908373ffffffffffffffffffffffffffffffffffffffff160217905550808273ffffffffffffffffffffffffffffffffffffffff16600073ffffffffffffffffffffffffffffffffffffffff167fddf252ad1be2c89b69c2b068fc378daa952ba7f163c4a11628f55a4df523b3ef60405160405180910390a46131cf60008383612ca1565b5050565b6000808273ffffffffffffffffffffffffffffffffffffffff163b119050919050565b82805461320290614844565b90600052602060002090601f016020900481019282613224576000855561326b565b82601f1061323d57805160ff191683800117855561326b565b8280016001018555821561326b579182015b8281111561326a57825182559160200191906001019061324f565b5b509050613278919061327c565b5090565b5b8082111561329557600081600090555060010161327d565b5090565b60006132ac6132a78461455f565b61453a565b905080838252602082019050828560208602820111156132cf576132ce614a40565b5b60005b8581101561331d57813567ffffffffffffffff8111156132f5576132f4614a3b565b5b808601613302898261345b565b855260208501945060208401935050506001810190506132d2565b5050509392505050565b600061333a6133358461458b565b61453a565b90508281526020810184848401111561335657613355614a45565b5b613361848285614802565b509392505050565b600061337c613377846145bc565b61453a565b90508281526020810184848401111561339857613397614a45565b5b6133a3848285614802565b509392505050565b6000813590506133ba81615236565b92915050565b600082601f8301126133d5576133d4614a3b565b5b81356133e5848260208601613299565b91505092915050565b6000813590506133fd8161524d565b92915050565b60008135905061341281615264565b92915050565b60008151905061342781615264565b92915050565b600082601f83011261344257613441614a3b565b5b8135613452848260208601613327565b91505092915050565b600082601f8301126134705761346f614a3b565b5b8135613480848260208601613369565b91505092915050565b6000813590506134988161527b565b92915050565b6000602082840312156134b4576134b3614a4f565b5b60006134c2848285016133ab565b91505092915050565b600080604083850312156134e2576134e1614a4f565b5b60006134f0858286016133ab565b9250506020613501858286016133ab565b9150509250929050565b60008060006060848603121561352457613523614a4f565b5b6000613532868287016133ab565b9350506020613543868287016133ab565b925050604061355486828701613489565b9150509250925092565b6000806000806080858703121561357857613577614a4f565b5b6000613586878288016133ab565b9450506020613597878288016133ab565b93505060406135a887828801613489565b925050606085013567ffffffffffffffff8111156135c9576135c8614a4a565b5b6135d58782880161342d565b91505092959194509250565b600080604083850312156135f8576135f7614a4f565b5b6000613606858286016133ab565b9250506020613617858286016133ee565b9150509250929050565b6000806040838503121561363857613637614a4f565b5b6000613646858286016133ab565b925050602061365785828601613489565b9150509250929050565b60008060008060008060008060006101208a8c03121561368457613683614a4f565b5b60008a013567ffffffffffffffff8111156136a2576136a1614a4a565b5b6136ae8c828d016133c0565b99505060208a013567ffffffffffffffff8111156136cf576136ce614a4a565b5b6136db8c828d016133c0565b98505060408a013567ffffffffffffffff8111156136fc576136fb614a4a565b5b6137088c828d016133c0565b97505060608a013567ffffffffffffffff81111561372957613728614a4a565b5b6137358c828d016133c0565b96505060806137468c828d016133ee565b95505060a06137578c828d016133ee565b94505060c06137688c828d01613489565b93505060e06137798c828d01613489565b92505061010061378b8c828d01613489565b9150509295985092959850929598565b6000602082840312156137b1576137b0614a4f565b5b60006137bf84828501613403565b91505092915050565b6000602082840312156137de576137dd614a4f565b5b60006137ec84828501613418565b91505092915050565b60008060008060008060008060006101208a8c03121561381857613817614a4f565b5b60008a013567ffffffffffffffff81111561383657613835614a4a565b5b6138428c828d0161345b565b99505060208a013567ffffffffffffffff81111561386357613862614a4a565b5b61386f8c828d0161345b565b98505060408a013567ffffffffffffffff8111156138905761388f614a4a565b5b61389c8c828d0161345b565b97505060608a013567ffffffffffffffff8111156138bd576138bc614a4a565b5b6138c98c828d0161345b565b96505060806138da8c828d016133ee565b95505060a06138eb8c828d016133ee565b94505060c06138fc8c828d01613489565b93505060e061390d8c828d01613489565b9250506101008a013567ffffffffffffffff81111561392f5761392e614a4a565b5b61393b8c828d0161345b565b9150509295985092959850929598565b60006020828403121561396157613960614a4f565b5b600061396f84828501613489565b91505092915050565b6000806040838503121561398f5761398e614a4f565b5b600061399d85828601613489565b92505060206139ae858286016133ab565b9150509250929050565b600080600080608085870312156139d2576139d1614a4f565b5b60006139e087828801613489565b94505060206139f1878288016133ee565b9350506040613a02878288016133ee565b9250506060613a1387828801613489565b91505092959194509250565b613a2881614757565b82525050565b613a3781614745565b82525050565b613a4681614769565b82525050565b6000613a57826145ed565b613a618185614603565b9350613a71818560208601614811565b613a7a81614a54565b840191505092915050565b613a8e816147de565b82525050565b613a9d816147f0565b82525050565b6000613aae826145f8565b613ab88185614614565b9350613ac8818560208601614811565b613ad181614a54565b840191505092915050565b6000613ae7826145f8565b613af18185614625565b9350613b01818560208601614811565b80840191505092915050565b6000613b1a600483614614565b9150613b2582614a65565b602082019050919050565b6000613b3d603283614614565b9150613b4882614a8e565b604082019050919050565b6000613b60602583614614565b9150613b6b82614add565b604082019050919050565b6000613b83601c83614614565b9150613b8e82614b2c565b602082019050919050565b6000613ba6604383614614565b9150613bb182614b55565b606082019050919050565b6000613bc9602483614614565b9150613bd482614bca565b604082019050919050565b6000613bec601983614614565b9150613bf782614c19565b602082019050919050565b6000613c0f603983614614565b9150613c1a82614c42565b604082019050919050565b6000613c32603483614614565b9150613c3d82614c91565b604082019050919050565b6000613c55602483614614565b9150613c6082614ce0565b604082019050919050565b6000613c78602983614614565b9150613c8382614d2f565b604082019050919050565b6000613c9b602e83614614565b9150613ca682614d7e565b604082019050919050565b6000613cbe602b83614614565b9150613cc982614dcd565b604082019050919050565b6000613ce1602883614614565b9150613cec82614e1c565b604082019050919050565b6000613d04603e83614614565b9150613d0f82614e6b565b604082019050919050565b6000613d27602083614614565b9150613d3282614eba565b602082019050919050565b6000613d4a602d83614614565b9150613d5582614ee3565b604082019050919050565b6000613d6d604883614614565b9150613d7882614f32565b606082019050919050565b6000613d90602783614614565b9150613d9b82614fa7565b604082019050919050565b6000613db3603a83614614565b9150613dbe82614ff6565b604082019050919050565b6000613dd6601883614614565b9150613de182615045565b602082019050919050565b6000613df9604783614614565b9150613e048261506e565b606082019050919050565b6000613e1c602183614614565b9150613e27826150e3565b604082019050919050565b6000613e3f603a83614614565b9150613e4a82615132565b604082019050919050565b6000613e62602e83614614565b9150613e6d82615181565b604082019050919050565b6000613e85601f83614614565b9150613e90826151d0565b602082019050919050565b6000613ea8600683614614565b9150613eb3826151f9565b602082019050919050565b613ec7816147d4565b82525050565b6000613ed98285613adc565b9150613ee58284613adc565b91508190509392505050565b6000602082019050613f066000830184613a2e565b92915050565b6000602082019050613f216000830184613a1f565b92915050565b6000608082019050613f3c6000830187613a2e565b613f496020830186613a2e565b613f566040830185613a2e565b613f636060830184613ebe565b95945050505050565b6000608082019050613f816000830187613a2e565b613f8e6020830186613a2e565b613f9b6040830185613ebe565b8181036060830152613fad8184613a4c565b905095945050505050565b6000606082019050613fcd6000830186613a2e565b613fda6020830185613ebe565b613fe76040830184613a2e565b949350505050565b60006080820190506140046000830187613a2e565b6140116020830186613ebe565b61401e6040830185613a2e565b61402b6060830184613ebe565b95945050505050565b600060c0820190506140496000830189613a2e565b6140566020830188613ebe565b81810360408301526140688187613aa3565b9050818103606083015261407c8186613aa3565b905081810360808301526140908185613aa3565b905081810360a08301526140a48184613aa3565b9050979650505050505050565b600060c0820190506140c66000830188613a2e565b6140d36020830187613ebe565b81810360408301526140e481613b0d565b90506140f36060830186613a2e565b6141006080830185613a2e565b61410d60a0830184613ebe565b9695505050505050565b600060c08201905061412c6000830188613a2e565b6141396020830187613ebe565b818103604083015261414a81613e9b565b90506141596060830186613a2e565b6141666080830185613a2e565b61417360a0830184613a94565b9695505050505050565b60006020820190506141926000830184613a3d565b92915050565b60006080820190506141ad6000830187613a3d565b6141ba6020830186613a85565b6141c76040830185613ebe565b6141d46060830184613ebe565b95945050505050565b600060208201905081810360008301526141f78184613aa3565b905092915050565b6000602082019050818103600083015261421881613b30565b9050919050565b6000602082019050818103600083015261423881613b53565b9050919050565b6000602082019050818103600083015261425881613b76565b9050919050565b6000602082019050818103600083015261427881613b99565b9050919050565b6000602082019050818103600083015261429881613bbc565b9050919050565b600060208201905081810360008301526142b881613bdf565b9050919050565b600060208201905081810360008301526142d881613c02565b9050919050565b600060208201905081810360008301526142f881613c25565b9050919050565b6000602082019050818103600083015261431881613c48565b9050919050565b6000602082019050818103600083015261433881613c6b565b9050919050565b6000602082019050818103600083015261435881613c8e565b9050919050565b6000602082019050818103600083015261437881613cb1565b9050919050565b6000602082019050818103600083015261439881613cd4565b9050919050565b600060208201905081810360008301526143b881613cf7565b9050919050565b600060208201905081810360008301526143d881613d1a565b9050919050565b600060208201905081810360008301526143f881613d3d565b9050919050565b6000602082019050818103600083015261441881613d60565b9050919050565b6000602082019050818103600083015261443881613d83565b9050919050565b6000602082019050818103600083015261445881613da6565b9050919050565b6000602082019050818103600083015261447881613dc9565b9050919050565b6000602082019050818103600083015261449881613dec565b9050919050565b600060208201905081810360008301526144b881613e0f565b9050919050565b600060208201905081810360008301526144d881613e32565b9050919050565b600060208201905081810360008301526144f881613e55565b9050919050565b6000602082019050818103600083015261451881613e78565b9050919050565b60006020820190506145346000830184613ebe565b92915050565b6000614544614555565b90506145508282614876565b919050565b6000604051905090565b600067ffffffffffffffff82111561457a57614579614a0c565b5b602082029050602081019050919050565b600067ffffffffffffffff8211156145a6576145a5614a0c565b5b6145af82614a54565b9050602081019050919050565b600067ffffffffffffffff8211156145d7576145d6614a0c565b5b6145e082614a54565b9050602081019050919050565b600081519050919050565b600081519050919050565b600082825260208201905092915050565b600082825260208201905092915050565b600081905092915050565b600061463b826147d4565b9150614646836147d4565b9250827fffffffffffffffffffffffffffffffffffffffffffffffffffffffffffffffff0382111561467b5761467a614921565b5b828201905092915050565b6000614691826147d4565b915061469c836147d4565b9250826146ac576146ab614950565b5b828204905092915050565b60006146c2826147d4565b91506146cd836147d4565b9250817fffffffffffffffffffffffffffffffffffffffffffffffffffffffffffffffff048311821515161561470657614705614921565b5b828202905092915050565b600061471c826147d4565b9150614727836147d4565b92508282101561473a57614739614921565b5b828203905092915050565b6000614750826147b4565b9050919050565b6000614762826147b4565b9050919050565b60008115159050919050565b60007fffffffff0000000000000000000000000000000000000000000000000000000082169050919050565b60008190506147af82615222565b919050565b600073ffffffffffffffffffffffffffffffffffffffff82169050919050565b6000819050919050565b60006147e9826147a1565b9050919050565b60006147fb826147d4565b9050919050565b82818337600083830152505050565b60005b8381101561482f578082015181840152602081019050614814565b8381111561483e576000848401525b50505050565b6000600282049050600182168061485c57607f821691505b602082108114156148705761486f6149ae565b5b50919050565b61487f82614a54565b810181811067ffffffffffffffff8211171561489e5761489d614a0c565b5b80604052505050565b60006148b2826147d4565b91507fffffffffffffffffffffffffffffffffffffffffffffffffffffffffffffffff8214156148e5576148e4614921565b5b600182019050919050565b60006148fb826147d4565b9150614906836147d4565b92508261491657614915614950565b5b828206905092915050565b7f4e487b7100000000000000000000000000000000000000000000000000000000600052601160045260246000fd5b7f4e487b7100000000000000000000000000000000000000000000000000000000600052601260045260246000fd5b7f4e487b7100000000000000000000000000000000000000000000000000000000600052602160045260246000fd5b7f4e487b7100000000000000000000000000000000000000000000000000000000600052602260045260246000fd5b7f4e487b7100000000000000000000000000000000000000000000000000000000600052603260045260246000fd5b7f4e487b7100000000000000000000000000000000000000000000000000000000600052604160045260246000fd5b600080fd5b600080fd5b600080fd5b600080fd5b600080fd5b6000601f19601f8301169050919050565b7f536f6c6400000000000000000000000000000000000000000000000000000000600082015250565b7f4552433732313a207472616e7366657220746f206e6f6e20455243373231526560008201527f63656976657220696d706c656d656e7465720000000000000000000000000000602082015250565b7f4552433732313a207472616e736665722066726f6d20696e636f72726563742060008201527f6f776e6572000000000000000000000000000000000000000000000000000000602082015250565b7f4552433732313a20746f6b656e20616c7265616479206d696e74656400000000600082015250565b7f437573746f6d436f6c6c656374696f6e203a20706c616365426964202d3e204360008201527f616e2774206269642074776963652e2043616e63656c2050726576696f75732060208201527f6269640000000000000000000000000000000000000000000000000000000000604082015250565b7f4552433732313a207472616e7366657220746f20746865207a65726f2061646460008201527f7265737300000000000000000000000000000000000000000000000000000000602082015250565b7f4552433732313a20617070726f766520746f2063616c6c657200000000000000600082015250565b7f437573746f6d436f6c6c656374696f6e202d3e20746f6b656e496420646f657360008201527f6e277420636f72726573706f6e6420746f20616e79204e465400000000000000602082015250565b7f437573746f6d436f6c6c656374696f6e203a206d696e74546f6b656e202d3e2060008201527f4e6f7420636f6c6c656374696f6e206f776e6572000000000000000000000000602082015250565b7f437573746f6d436f6c6c656374696f6e202d3e204e6f2062696420627920636160008201527f6c6c657200000000000000000000000000000000000000000000000000000000602082015250565b7f4552433732313a2061646472657373207a65726f206973206e6f74206120766160008201527f6c6964206f776e65720000000000000000000000000000000000000000000000602082015250565b7f45524337323155524953746f726167653a2055524920736574206f66206e6f6e60008201527f6578697374656e7420746f6b656e000000000000000000000000000000000000602082015250565b7f437573746f6d436f6c6c656374696f6e202d3e2043616c6c6572206973206e6f60008201527f74206e6674206f776e6572000000000000000000000000000000000000000000602082015250565b7f437573746f6d436f6c6c656374696f6e202d3e204e6f2062696420627920757360008201527f65722027746f5f27000000000000000000000000000000000000000000000000602082015250565b7f4552433732313a20617070726f76652063616c6c6572206973206e6f7420746f60008201527f6b656e206f776e6572206e6f7220617070726f76656420666f7220616c6c0000602082015250565b7f4552433732313a206d696e7420746f20746865207a65726f2061646472657373600082015250565b7f437573746f6d436f6c6c656374696f6e202d3e204e465420646f65736e27742060008201527f616c6c6f772062696464696e6700000000000000000000000000000000000000602082015250565b7f437573746f6d436f6c6c656374696f6e203a206275794669786564507269636560008201527f4e4654202d3e20506c656173652073656e6420657861637420616d6f756e742060208201527f6173207072696365000000000000000000000000000000000000000000000000604082015250565b7f437573746f6d436f6c6c656374696f6e202d3e2043616c6c6572206973206e6660008201527f74206f776e657200000000000000000000000000000000000000000000000000602082015250565b7f437573746f6d436f6c6c656374696f6e203a206275794669786564507269636560008201527f4e4654202d3e204e4654206973206e6f7420666f722073616c65000000000000602082015250565b7f4552433732313a20696e76616c696420746f6b656e2049440000000000000000600082015250565b7f437573746f6d436f6c6c656374696f6e203a20706c616365426964202d3e204360008201527f616e277420626964206c6f776572207468616e206e66742773206d696e696d7560208201527f6d20707269636500000000000000000000000000000000000000000000000000604082015250565b7f4552433732313a20617070726f76616c20746f2063757272656e74206f776e6560008201527f7200000000000000000000000000000000000000000000000000000000000000602082015250565b7f437573746f6d436f6c6c656374696f6e203a20706c616365426964202d3e204e60008201527f4654206973206c697374656420666f722062696473206f6e6c79000000000000602082015250565b7f4552433732313a2063616c6c6572206973206e6f7420746f6b656e206f776e6560008201527f72206e6f7220617070726f766564000000000000000000000000000000000000602082015250565b7f5265656e7472616e637947756172643a207265656e7472616e742063616c6c00600082015250565b7f4d696e7465640000000000000000000000000000000000000000000000000000600082015250565b600281106152335761523261497f565b5b50565b61523f81614745565b811461524a57600080fd5b50565b61525681614769565b811461526157600080fd5b50565b61526d81614775565b811461527857600080fd5b50565b615284816147d4565b811461528f57600080fd5b5056fe4e6576657220676f6e6e61206769766520796f752075702c204e6576657220676f6e6e61206c657420796f7520646f776ea2646970667358221220090fe3b7c83e7a7ff720f661c0608e1e4f633c6047c784cb621c58fa2c09605164736f6c63430008070033",
  "immutableReferences": {},
  "source": "// SPDX-License-Identifier: MIT\npragma solidity ^0.8.6;\n\nimport \"@openzeppelin/contracts/token/ERC721/extensions/ERC721URIStorage.sol\";\nimport \"@openzeppelin/contracts/utils/Counters.sol\";\nimport \"@openzeppelin/contracts/security/ReentrancyGuard.sol\";\nimport \"./Exibit.sol\";\n\n// NFTs can be listed for fixed price or bidding\nenum SellType {\n    FixedPrice,\n    Bidding\n}\n\ncontract CustomCollection is ReentrancyGuard, ERC721URIStorage {\n    // Maintaining a counter of number of nfts in collection\n    using Counters for Counters.Counter;\n    Counters.Counter private _tokenIds;\n\n    // Store collection owner/creator\n    address payable public creator;\n\n    // Store collection Metadata URI\n    string public collectionMetadataURI;\n\n    // Store Marketplace address\n    address payable public marketPlaceAddress;\n\n    // On Collection creation\n    constructor(\n        string memory name_,\n        string memory symbol_,\n        string memory collectionMetadata_,\n        address creator_\n    ) ERC721(name_, symbol_) {\n        creator = payable(creator_);\n\n        marketPlaceAddress = payable(msg.sender);\n\n        collectionMetadataURI = collectionMetadata_;\n    }\n\n    // ** NFT ** //\n\n    // Required NFT data in contract\n    // Other constant data is accessed from event logs by subgraph\n    struct NFT {\n        bool forSale;\n        SellType sellType;\n        // incase of bidding type NFT price indicates minimum bid\n        uint256 price;\n        uint256 royalty;\n    }\n\n    // To store nfts (tokenId => NFT)\n    mapping(uint256 => NFT) public nfts;\n\n    // To store bids (tokenId => (address => price))\n    mapping(uint256 => mapping(address => uint256)) public bids;\n\n    // tokenId to secret\n    mapping(uint256 => string) unlockableContent;\n\n    // On minting of Nft\n    event NFTCreated(\n        address cAddress,\n        uint256 tokenId,\n        string name,\n        string image,\n        string properties,\n        string metadata\n    );\n\n    // On mint/transfer/sale of nft\n    event NFTEvent(\n        address cAddress,\n        uint256 tokenId,\n        string eventType,\n        address from,\n        address to,\n        uint256 price\n    );\n\n    // On bid placed\n    event BidPlaced(\n        address cAddress,\n        uint256 tokenId,\n        address from,\n        uint256 price\n    );\n\n    // On bid canceled\n    event BidCanceled(address cAddress, uint256 tokenId, address from);\n\n    // Checks if NFT with given tokenId exists\n    modifier tokenExists(uint256 tokenId) {\n        require(\n            tokenId <= _tokenIds.current(),\n            \"CustomCollection -> tokenId doesn't correspond to any NFT\"\n        );\n        _;\n    }\n\n    // Checks if owner of tokenId is caller\n    modifier callerIsNftOwner(uint256 tokenId) {\n        require(\n            msg.sender == ownerOf(tokenId),\n            \"CustomCollection -> Caller is not nft owner\"\n        );\n        _;\n    }\n\n    // Checks if owner of tokenId is not caller\n    modifier callerIsNotNftOwner(uint256 tokenId) {\n        require(\n            msg.sender != ownerOf(tokenId),\n            \"CustomCollection -> Caller is nft owner\"\n        );\n        _;\n    }\n\n    // Checks if NFT is listed as open for bids\n    modifier isBiddable(uint256 tokenId) {\n        require(\n            nfts[tokenId].sellType == SellType.Bidding,\n            \"CustomCollection -> NFT doesn't allow bidding\"\n        );\n        _;\n    }\n\n    // List NFT on Marketplace\n    function mintNFT(\n        string memory name_,\n        string memory image_,\n        string memory properties_,\n        string memory metadata_,\n        bool forSale_,\n        bool isFixedPrice_,\n        uint256 price_,\n        uint256 royalty_,\n        string memory unlockableString_\n    ) public {\n        // Only collection owner can mint NFTs\n        require(\n            msg.sender == creator,\n            \"CustomCollection : mintToken -> Not collection owner\"\n        );\n\n        _tokenIds.increment();\n        uint256 tokenId = _tokenIds.current();\n\n        // ERC721 Mint\n        _safeMint(msg.sender, tokenId);\n\n        // ERC721 set Metadata\n        _setTokenURI(tokenId, metadata_);\n\n        // In case of bidding nft transfer is called by owner of nft\n        // But for fixed price nft transfer can be only done by marketplace\n        if (isFixedPrice_) {\n            // ERC721 approve marketplace to manage owner's current token\n            approve(marketPlaceAddress, tokenId);\n        }\n\n        // Set unlockableContent\n        unlockableContent[tokenId] = unlockableString_;\n\n        // Store nft in marketplace\n        nfts[tokenId] = NFT({\n            forSale: forSale_,\n            sellType: isFixedPrice_ ? SellType.FixedPrice : SellType.Bidding,\n            price: price_,\n            royalty: royalty_\n        });\n\n        // Log events to subgraph\n        emit NFTCreated(\n            address(this),\n            tokenId,\n            name_,\n            image_,\n            properties_,\n            metadata_\n        );\n\n        emit NFTEvent(\n            address(this),\n            tokenId,\n            \"Minted\",\n            address(0),\n            msg.sender,\n            0\n        );\n    }\n\n    // For minting multiple NFTs in batch\n    function mintBatch(\n        string[] memory names,\n        string[] memory images,\n        string[] memory properties,\n        string[] memory metadatas,\n        bool forSale_,\n        bool isFixedPrice_,\n        uint256 price_,\n        uint256 royalty_,\n        uint256 nItems\n    ) public {\n        for (uint256 i = 0; i < nItems; i++) {\n            mintNFT(\n                names[i],\n                images[i],\n                properties[i],\n                metadatas[i],\n                forSale_,\n                isFixedPrice_,\n                price_,\n                royalty_,\n                \"Never gonna give you up, Never gonna let you down\"\n            );\n        }\n    }\n\n    // Buy Fixed Price NFT\n    // NonReentrant modifier is used to prevent any Re-Entrancy hacks\n    function buyFixedPriceNFT(uint256 tokenId)\n        public\n        payable\n        nonReentrant\n        tokenExists(tokenId)\n        callerIsNotNftOwner(tokenId)\n    {\n        NFT memory nft = nfts[tokenId];\n\n        require(\n            nft.sellType == SellType.FixedPrice,\n            \"CustomCollection : placeBid -> NFT is listed for bids only\"\n        );\n        require(\n            nft.forSale,\n            \"CustomCollection : buyFixedPriceNFT -> NFT is not for sale\"\n        );\n        require(\n            msg.value == nft.price,\n            \"CustomCollection : buyFixedPriceNFT -> Please send exact amount as price\"\n        );\n\n        // Tranfer funds to creator as royalty\n        creator.transfer(((nft.price * nft.royalty) / 100));\n\n        // Tranfer remaining funds to current owner\n        payable(ownerOf(tokenId)).transfer(\n            (nft.price * (100 - nft.royalty)) / 100\n        );\n\n        // Transfer nft to msg.sender\n        Marketplace(marketPlaceAddress).marketPlaceTransferFrom(\n            address(this),\n            ownerOf(tokenId),\n            msg.sender,\n            tokenId\n        );\n\n        // New owner has to approve marketplace to manage their token\n        approve(marketPlaceAddress, tokenId);\n\n        // After buying the NFT is by default\n        // unlisted from sale\n        // To list for sale call modifyListingMechanism\n        nfts[tokenId].forSale = false;\n\n        // Log event to subgraph\n        emit NFTEvent(\n            address(this),\n            tokenId,\n            \"Sold\",\n            ownerOf(tokenId),\n            msg.sender,\n            nft.price / 1e12\n        );\n    }\n\n    // Places bid. Recieves funds from user which are held by the contract\n    function placeBid(uint256 tokenId)\n        public\n        payable\n        tokenExists(tokenId)\n        callerIsNotNftOwner(tokenId)\n        isBiddable(tokenId)\n    {\n        require(\n            bids[tokenId][msg.sender] == 0,\n            \"CustomCollection : placeBid -> Can't bid twice. Cancel Previous bid\"\n        );\n        require(\n            msg.value >= nfts[tokenId].price,\n            \"CustomCollection : placeBid -> Can't bid lower than nft's minimum price\"\n        );\n\n        // Add bid on chain\n        bids[tokenId][msg.sender] = msg.value;\n\n        // Log event to subgraph\n        emit BidPlaced(address(this), tokenId, msg.sender, msg.value / 1e12);\n    }\n\n    // Cancels bid by sender on item with tokenId\n    function cancelBid(uint256 tokenId)\n        public\n        tokenExists(tokenId)\n        isBiddable(tokenId)\n    {\n        require(\n            bids[tokenId][msg.sender] != 0,\n            \"CustomCollection -> No bid by caller\"\n        );\n\n        uint256 bidAmount = bids[tokenId][msg.sender];\n\n        // Remove bid on chain\n        bids[tokenId][msg.sender] = 0;\n\n        // Transfer bidder's funds back\n        payable(msg.sender).transfer(bidAmount);\n\n        // Log event to subgraph\n        emit BidCanceled(address(this), tokenId, msg.sender);\n    }\n\n    // Sell NFT to a bidder\n    // NonReentrant modifier is used to prevent any Re-Entrancy hacks\n    function sellBiddingNFT(uint256 tokenId, address to_)\n        public\n        nonReentrant\n        tokenExists(tokenId)\n        callerIsNftOwner(tokenId)\n        isBiddable(tokenId)\n    {\n        require(\n            bids[tokenId][to_] != 0,\n            \"CustomCollection -> No bid by user 'to_'\"\n        );\n\n        // Tranfer funds to creator as royalty\n        creator.transfer(((bids[tokenId][to_] * nfts[tokenId].royalty) / 100));\n\n        // Tranfer remaining funds to current owner\n        payable(ownerOf(tokenId)).transfer(\n            (bids[tokenId][to_] * (100 - nfts[tokenId].royalty)) / 100\n        );\n\n        // Transfer nft to msg.sender\n        safeTransferFrom(msg.sender, to_, tokenId);\n\n        // Log event to subgraph\n        emit NFTEvent(\n            address(this),\n            tokenId,\n            \"Sold\",\n            ownerOf(tokenId),\n            to_,\n            bids[tokenId][to_] / 1e12\n        );\n\n        emit BidCanceled(address(this), tokenId, to_);\n    }\n\n    // Get unlockable content to owner of nft\n    function getUnlockableContent(uint256 tokenId)\n        public\n        view\n        tokenExists(tokenId)\n        callerIsNftOwner(tokenId)\n        returns (string memory)\n    {\n        return unlockableContent[tokenId];\n    }\n\n    // Modify listing mechanism\n    function modifyListingMechanism(\n        uint256 tokenId,\n        bool setFixPrice,\n        bool forSale,\n        uint256 newPrice\n    )\n        public\n        // address[] memory bidders\n        tokenExists(tokenId)\n        callerIsNftOwner(tokenId)\n    {\n        // For fixed price tokens\n        if (nfts[tokenId].sellType == SellType.FixedPrice) {\n            if (!setFixPrice) {\n                // Convert to bidding and change price\n                nfts[tokenId].sellType = SellType.Bidding;\n                nfts[tokenId].price = newPrice;\n            } else {\n                // Change price and forSale status\n                nfts[tokenId].forSale = forSale;\n                nfts[tokenId].price = newPrice;\n            }\n        }\n    }\n}\n",
  "sourcePath": "/home/aviral/devLearn/haxxx/nft-marketplace/contracts/CustomCollection.sol",
  "compiler": {
    "name": "solc",
    "version": "0.8.7+commit.e28d00a7.Emscripten.clang"
  },
  "schemaVersion": "3.4.10",
  "updatedAt": "2022-09-20T18:14:30.988Z",
  "devdoc": {
    "kind": "dev",
    "methods": {
      "approve(address,uint256)": {
        "details": "See {IERC721-approve}."
      },
      "balanceOf(address)": {
        "details": "See {IERC721-balanceOf}."
      },
      "getApproved(uint256)": {
        "details": "See {IERC721-getApproved}."
      },
      "isApprovedForAll(address,address)": {
        "details": "See {IERC721-isApprovedForAll}."
      },
      "name()": {
        "details": "See {IERC721Metadata-name}."
      },
      "ownerOf(uint256)": {
        "details": "See {IERC721-ownerOf}."
      },
      "safeTransferFrom(address,address,uint256)": {
        "details": "See {IERC721-safeTransferFrom}."
      },
      "safeTransferFrom(address,address,uint256,bytes)": {
        "details": "See {IERC721-safeTransferFrom}."
      },
      "setApprovalForAll(address,bool)": {
        "details": "See {IERC721-setApprovalForAll}."
      },
      "supportsInterface(bytes4)": {
        "details": "See {IERC165-supportsInterface}."
      },
      "symbol()": {
        "details": "See {IERC721Metadata-symbol}."
      },
      "tokenURI(uint256)": {
        "details": "See {IERC721Metadata-tokenURI}."
      },
      "transferFrom(address,address,uint256)": {
        "details": "See {IERC721-transferFrom}."
      }
    },
    "version": 1
  },
  "userdoc": {
    "kind": "user",
    "methods": {},
    "version": 1
  }
}