{
  "contractName": "Exibit",
  "abi": [
    {
      "anonymous": false,
      "inputs": [
        {
          "indexed": false,
          "internalType": "address",
          "name": "cAddress",
          "type": "address"
        },
        {
          "indexed": false,
          "internalType": "string",
          "name": "name",
          "type": "string"
        },
        {
          "indexed": false,
          "internalType": "string",
          "name": "image",
          "type": "string"
        },
        {
          "indexed": false,
          "internalType": "address",
          "name": "creator",
          "type": "address"
        },
        {
          "indexed": false,
          "internalType": "string",
          "name": "metadata",
          "type": "string"
        }
      ],
      "name": "CollectionCreated",
      "type": "event"
    },
    {
      "anonymous": false,
      "inputs": [
        {
          "indexed": false,
          "internalType": "address",
          "name": "uAddress",
          "type": "address"
        },
        {
          "indexed": false,
          "internalType": "string",
          "name": "name",
          "type": "string"
        },
        {
          "indexed": false,
          "internalType": "string",
          "name": "image",
          "type": "string"
        },
        {
          "indexed": false,
          "internalType": "string",
          "name": "twitterUrl",
          "type": "string"
        },
        {
          "indexed": false,
          "internalType": "string",
          "name": "websiteUrl",
          "type": "string"
        }
      ],
      "name": "UserCreated",
      "type": "event"
    },
    {
      "stateMutability": "payable",
      "type": "receive"
    },
    {
      "inputs": [
        {
          "internalType": "string",
          "name": "name_",
          "type": "string"
        },
        {
          "internalType": "string",
          "name": "image_",
          "type": "string"
        },
        {
          "internalType": "string",
          "name": "twitterUrl_",
          "type": "string"
        },
        {
          "internalType": "string",
          "name": "websiteUrl_",
          "type": "string"
        }
      ],
      "name": "createUser",
      "outputs": [],
      "stateMutability": "nonpayable",
      "type": "function"
    },
    {
      "inputs": [
        {
          "internalType": "string",
          "name": "name_",
          "type": "string"
        },
        {
          "internalType": "string",
          "name": "symbol_",
          "type": "string"
        },
        {
          "internalType": "string",
          "name": "image_",
          "type": "string"
        },
        {
          "internalType": "string",
          "name": "metadata_",
          "type": "string"
        }
      ],
      "name": "createCollection",
      "outputs": [],
      "stateMutability": "nonpayable",
      "type": "function"
    },
    {
      "inputs": [
        {
          "internalType": "address",
          "name": "cAddress",
          "type": "address"
        },
        {
          "internalType": "address",
          "name": "nftOwner",
          "type": "address"
        },
        {
          "internalType": "address",
          "name": "newOwner",
          "type": "address"
        },
        {
          "internalType": "uint256",
          "name": "tokenId",
          "type": "uint256"
        }
      ],
      "name": "marketPlaceTransferFrom",
      "outputs": [],
      "stateMutability": "nonpayable",
      "type": "function"
    }
  ],
  "bytecode": "0x608060405234801561001057600080fd5b50615d8c806100206000396000f3fe6080604052600436106200003d5760003560e01c80636f7fcddb146200004a578063c63d15fd1462000078578063fa15927814620000a65762000045565b366200004557005b600080fd5b3480156200005757600080fd5b50620000766004803603810190620000709190620003bc565b620000d4565b005b3480156200008557600080fd5b50620000a460048036038101906200009e91906200034a565b6200011b565b005b348015620000b357600080fd5b50620000d26004803603810190620000cc9190620003bc565b62000205565b005b7f3a92f8dece62f9b29e9012bd5b5bab2adf3044a1ce972e3d36c0a0b50fb4f36c33858585856040516200010d959493929190620005e3565b60405180910390a150505050565b8373ffffffffffffffffffffffffffffffffffffffff163373ffffffffffffffffffffffffffffffffffffffff16146200018c576040517f08c379a00000000000000000000000000000000000000000000000000000000081526004016200018390620006be565b60405180910390fd5b8373ffffffffffffffffffffffffffffffffffffffff166342842e0e8484846040518463ffffffff1660e01b8152600401620001cb9392919062000534565b600060405180830381600087803b158015620001e657600080fd5b505af1158015620001fb573d6000803e3d6000fd5b5050505050505050565b600084848333604051620002199062000290565b6200022894939291906200065c565b604051809103906000f08015801562000245573d6000803e3d6000fd5b5090507f41adb74ebd8922361cafa5c6b63356985a765d4976cadd38650fef4cffb3c3c981868533866040516200028195949392919062000571565b60405180910390a15050505050565b61546b80620008ec83390190565b6000620002b5620002af8462000709565b620006e0565b905082815260208101848484011115620002d457620002d362000848565b5b620002e184828562000799565b509392505050565b600081359050620002fa81620008b7565b92915050565b600082601f83011262000318576200031762000843565b5b81356200032a8482602086016200029e565b91505092915050565b6000813590506200034481620008d1565b92915050565b6000806000806080858703121562000367576200036662000852565b5b60006200037787828801620002e9565b94505060206200038a87828801620002e9565b93505060406200039d87828801620002e9565b9250506060620003b08782880162000333565b91505092959194509250565b60008060008060808587031215620003d957620003d862000852565b5b600085013567ffffffffffffffff811115620003fa57620003f96200084d565b5b620004088782880162000300565b945050602085013567ffffffffffffffff8111156200042c576200042b6200084d565b5b6200043a8782880162000300565b935050604085013567ffffffffffffffff8111156200045e576200045d6200084d565b5b6200046c8782880162000300565b925050606085013567ffffffffffffffff81111562000490576200048f6200084d565b5b6200049e8782880162000300565b91505092959194509250565b620004b5816200075b565b82525050565b6000620004c8826200073f565b620004d481856200074a565b9350620004e6818560208601620007a8565b620004f18162000857565b840191505092915050565b60006200050b603f836200074a565b9150620005188262000868565b604082019050919050565b6200052e816200078f565b82525050565b60006060820190506200054b6000830186620004aa565b6200055a6020830185620004aa565b62000569604083018462000523565b949350505050565b600060a082019050620005886000830188620004aa565b81810360208301526200059c8187620004bb565b90508181036040830152620005b28186620004bb565b9050620005c36060830185620004aa565b8181036080830152620005d78184620004bb565b90509695505050505050565b600060a082019050620005fa6000830188620004aa565b81810360208301526200060e8187620004bb565b90508181036040830152620006248186620004bb565b905081810360608301526200063a8185620004bb565b90508181036080830152620006508184620004bb565b90509695505050505050565b60006080820190508181036000830152620006788187620004bb565b905081810360208301526200068e8186620004bb565b90508181036040830152620006a48185620004bb565b9050620006b56060830184620004aa565b95945050505050565b60006020820190508181036000830152620006d981620004fc565b9050919050565b6000620006ec620006ff565b9050620006fa8282620007de565b919050565b6000604051905090565b600067ffffffffffffffff82111562000727576200072662000814565b5b620007328262000857565b9050602081019050919050565b600081519050919050565b600082825260208201905092915050565b600062000768826200076f565b9050919050565b600073ffffffffffffffffffffffffffffffffffffffff82169050919050565b6000819050919050565b82818337600083830152505050565b60005b83811015620007c8578082015181840152602081019050620007ab565b83811115620007d8576000848401525b50505050565b620007e98262000857565b810181811067ffffffffffffffff821117156200080b576200080a62000814565b5b80604052505050565b7f4e487b7100000000000000000000000000000000000000000000000000000000600052604160045260246000fd5b600080fd5b600080fd5b600080fd5b600080fd5b6000601f19601f8301169050919050565b7f4d61726b6574706c616365203a206d61726b6574506c6163655472616e73666560008201527f7246726f6d202d3e2043616c6c6572206973206e6f7420636f6e747261637400602082015250565b620008c2816200075b565b8114620008ce57600080fd5b50565b620008dc816200078f565b8114620008e857600080fd5b5056fe60806040523480156200001157600080fd5b506040516200546b3803806200546b83398181016040528101906200003791906200025f565b838360016000819055508160019080519060200190620000599291906200011a565b508060029080519060200190620000729291906200011a565b50505080600960006101000a81548173ffffffffffffffffffffffffffffffffffffffff021916908373ffffffffffffffffffffffffffffffffffffffff16021790555033600b60006101000a81548173ffffffffffffffffffffffffffffffffffffffff021916908373ffffffffffffffffffffffffffffffffffffffff16021790555081600a90805190602001906200010f9291906200011a565b505050505062000500565b8280546200012890620003f7565b90600052602060002090601f0160209004810192826200014c576000855562000198565b82601f106200016757805160ff191683800117855562000198565b8280016001018555821562000198579182015b82811115620001975782518255916020019190600101906200017a565b5b509050620001a79190620001ab565b5090565b5b80821115620001c6576000816000905550600101620001ac565b5090565b6000620001e1620001db8462000357565b6200032e565b9050828152602081018484840111156200020057620001ff620004c6565b5b6200020d848285620003c1565b509392505050565b6000815190506200022681620004e6565b92915050565b600082601f830112620002445762000243620004c1565b5b815162000256848260208601620001ca565b91505092915050565b600080600080608085870312156200027c576200027b620004d0565b5b600085015167ffffffffffffffff8111156200029d576200029c620004cb565b5b620002ab878288016200022c565b945050602085015167ffffffffffffffff811115620002cf57620002ce620004cb565b5b620002dd878288016200022c565b935050604085015167ffffffffffffffff811115620003015762000300620004cb565b5b6200030f878288016200022c565b9250506060620003228782880162000215565b91505092959194509250565b60006200033a6200034d565b90506200034882826200042d565b919050565b6000604051905090565b600067ffffffffffffffff82111562000375576200037462000492565b5b6200038082620004d5565b9050602081019050919050565b60006200039a82620003a1565b9050919050565b600073ffffffffffffffffffffffffffffffffffffffff82169050919050565b60005b83811015620003e1578082015181840152602081019050620003c4565b83811115620003f1576000848401525b50505050565b600060028204905060018216806200041057607f821691505b6020821081141562000427576200042662000463565b5b50919050565b6200043882620004d5565b810181811067ffffffffffffffff821117156200045a576200045962000492565b5b80604052505050565b7f4e487b7100000000000000000000000000000000000000000000000000000000600052602260045260246000fd5b7f4e487b7100000000000000000000000000000000000000000000000000000000600052604160045260246000fd5b600080fd5b600080fd5b600080fd5b600080fd5b6000601f19601f8301169050919050565b620004f1816200038d565b8114620004fd57600080fd5b50565b614f5b80620005106000396000f3fe6080604052600436106101355760003560e01c80638da5cb5b116100ab578063af345ec61161006f578063af345ec61461041d578063afc7fbd514610446578063b88d4fde1461046f578063c87b56dd14610498578063e985e9c5146104d5578063fe4867121461051257610135565b80638da5cb5b1461035957806395d89b41146103845780639703ef35146103af5780639979ef45146103d8578063a22cb465146103f457610135565b8063265aa621116100fd578063265aa621146102315780632af6c4481461027157806342842e0e1461028d5780636352211e146102b65780636fe04294146102f357806370a082311461031c57610135565b806301ffc9a71461013a57806306fdde0314610177578063081812fc146101a2578063095ea7b3146101df57806323b872dd14610208575b600080fd5b34801561014657600080fd5b50610161600480360381019061015c919061345f565b61054f565b60405161016e9190613e41565b60405180910390f35b34801561018357600080fd5b5061018c610631565b6040516101999190613ea1565b60405180910390f35b3480156101ae57600080fd5b506101c960048036038101906101c4919061360f565b6106c3565b6040516101d69190613bb5565b60405180910390f35b3480156101eb57600080fd5b506102066004803603810190610201919061341f565b610709565b005b34801561021457600080fd5b5061022f600480360381019061022a9190613309565b610821565b005b34801561023d57600080fd5b506102586004803603810190610253919061360f565b610881565b6040516102689493929190613e5c565b60405180910390f35b61028b6004803603810190610286919061360f565b6108cb565b005b34801561029957600080fd5b506102b460048036038101906102af9190613309565b610e45565b005b3480156102c257600080fd5b506102dd60048036038101906102d8919061360f565b610e65565b6040516102ea9190613bb5565b60405180910390f35b3480156102ff57600080fd5b5061031a6004803603810190610315919061367c565b610f17565b005b34801561032857600080fd5b50610343600480360381019061033e919061329c565b6110e2565b60405161035091906141e3565b60405180910390f35b34801561036557600080fd5b5061036e61119a565b60405161037b9190613bd0565b60405180910390f35b34801561039057600080fd5b506103996111c0565b6040516103a69190613ea1565b60405180910390f35b3480156103bb57600080fd5b506103d660048036038101906103d1919061360f565b611252565b005b6103f260048036038101906103ed919061360f565b6114f0565b005b34801561040057600080fd5b5061041b600480360381019061041691906133df565b6117d3565b005b34801561042957600080fd5b50610444600480360381019061043f919061363c565b6117e9565b005b34801561045257600080fd5b5061046d600480360381019061046891906134b9565b611da4565b005b34801561047b57600080fd5b506104966004803603810190610491919061335c565b612006565b005b3480156104a457600080fd5b506104bf60048036038101906104ba919061360f565b612068565b6040516104cc9190613ea1565b60405180910390f35b3480156104e157600080fd5b506104fc60048036038101906104f791906132c9565b61217b565b6040516105099190613e41565b60405180910390f35b34801561051e57600080fd5b506105396004803603810190610534919061360f565b61220f565b6040516105469190613ea1565b60405180910390f35b60007f80ac58cd000000000000000000000000000000000000000000000000000000007bffffffffffffffffffffffffffffffffffffffffffffffffffffffff1916827bffffffffffffffffffffffffffffffffffffffffffffffffffffffff1916148061061a57507f5b5e139f000000000000000000000000000000000000000000000000000000007bffffffffffffffffffffffffffffffffffffffffffffffffffffffff1916827bffffffffffffffffffffffffffffffffffffffffffffffffffffffff1916145b8061062a57506106298261237a565b5b9050919050565b606060018054610640906144dc565b80601f016020809104026020016040519081016040528092919081815260200182805461066c906144dc565b80156106b95780601f1061068e576101008083540402835291602001916106b9565b820191906000526020600020905b81548152906001019060200180831161069c57829003601f168201915b5050505050905090565b60006106ce826123e4565b6005600083815260200190815260200160002060009054906101000a900473ffffffffffffffffffffffffffffffffffffffff169050919050565b600061071482610e65565b90508073ffffffffffffffffffffffffffffffffffffffff168373ffffffffffffffffffffffffffffffffffffffff161415610785576040517f08c379a000000000000000000000000000000000000000000000000000000000815260040161077c90614163565b60405180910390fd5b8073ffffffffffffffffffffffffffffffffffffffff166107a461242f565b73ffffffffffffffffffffffffffffffffffffffff1614806107d357506107d2816107cd61242f565b61217b565b5b610812576040517f08c379a000000000000000000000000000000000000000000000000000000000815260040161080990614063565b60405180910390fd5b61081c8383612437565b505050565b61083261082c61242f565b826124f0565b610871576040517f08c379a0000000000000000000000000000000000000000000000000000000008152600401610868906141a3565b60405180910390fd5b61087c838383612585565b505050565b600c6020528060005260406000206000915090508060000160009054906101000a900460ff16908060000160019054906101000a900460ff16908060010154908060020154905084565b60026000541415610911576040517f08c379a0000000000000000000000000000000000000000000000000000000008152600401610908906141c3565b60405180910390fd5b60026000819055508061092460086127ec565b811115610966576040517f08c379a000000000000000000000000000000000000000000000000000000000815260040161095d90613f83565b60405180910390fd5b8161097081610e65565b73ffffffffffffffffffffffffffffffffffffffff163373ffffffffffffffffffffffffffffffffffffffff1614156109de576040517f08c379a00000000000000000000000000000000000000000000000000000000081526004016109d5906140e3565b60405180910390fd5b6000600c60008581526020019081526020016000206040518060800160405290816000820160009054906101000a900460ff161515151581526020016000820160019054906101000a900460ff166001811115610a3e57610a3d614617565b5b6001811115610a5057610a4f614617565b5b815260200160018201548152602001600282015481525050905060006001811115610a7e57610a7d614617565b5b81602001516001811115610a9557610a94614617565b5b14610ad5576040517f08c379a0000000000000000000000000000000000000000000000000000000008152600401610acc90614183565b60405180910390fd5b8060000151610b19576040517f08c379a0000000000000000000000000000000000000000000000000000000008152600401610b1090614103565b60405180910390fd5b80604001513414610b5f576040517f08c379a0000000000000000000000000000000000000000000000000000000008152600401610b56906140c3565b60405180910390fd5b600960009054906101000a900473ffffffffffffffffffffffffffffffffffffffff1673ffffffffffffffffffffffffffffffffffffffff166108fc606483606001518460400151610bb1919061434f565b610bbb919061431e565b9081150290604051600060405180830381858888f19350505050158015610be6573d6000803e3d6000fd5b50600b60009054906101000a900473ffffffffffffffffffffffffffffffffffffffff1673ffffffffffffffffffffffffffffffffffffffff166108fc60648360400151610c34919061431e565b9081150290604051600060405180830381858888f19350505050158015610c5f573d6000803e3d6000fd5b50610c6984610e65565b73ffffffffffffffffffffffffffffffffffffffff166108fc6064600184606001516064610c9791906143a9565b610ca191906143a9565b8460400151610cb0919061434f565b610cba919061431e565b9081150290604051600060405180830381858888f19350505050158015610ce5573d6000803e3d6000fd5b50600b60009054906101000a900473ffffffffffffffffffffffffffffffffffffffff1673ffffffffffffffffffffffffffffffffffffffff1663c63d15fd30610d2e87610e65565b33886040518563ffffffff1660e01b8152600401610d4f9493929190613beb565b600060405180830381600087803b158015610d6957600080fd5b505af1158015610d7d573d6000803e3d6000fd5b50505050610dad600b60009054906101000a900473ffffffffffffffffffffffffffffffffffffffff1685610709565b6000600c600086815260200190815260200160002060000160006101000a81548160ff0219169083151502179055507fd150b62f2313c33b378415934acdff9ca2554598f9325710306b1c3e274b741b3085610e0887610e65565b3364e8d4a510008660400151610e1e919061431e565b604051610e2f959493929190613d75565b60405180910390a1505050600160008190555050565b610e6083838360405180602001604052806000815250612006565b505050565b6000806003600084815260200190815260200160002060009054906101000a900473ffffffffffffffffffffffffffffffffffffffff169050600073ffffffffffffffffffffffffffffffffffffffff168173ffffffffffffffffffffffffffffffffffffffff161415610f0e576040517f08c379a0000000000000000000000000000000000000000000000000000000008152600401610f0590614123565b60405180910390fd5b80915050919050565b83610f2260086127ec565b811115610f64576040517f08c379a0000000000000000000000000000000000000000000000000000000008152600401610f5b90613f83565b60405180910390fd5b84610f6e81610e65565b73ffffffffffffffffffffffffffffffffffffffff163373ffffffffffffffffffffffffffffffffffffffff1614610fdb576040517f08c379a0000000000000000000000000000000000000000000000000000000008152600401610fd290614023565b60405180910390fd5b60006001811115610fef57610fee614617565b5b600c600088815260200190815260200160002060000160019054906101000a900460ff16600181111561102557611024614617565b5b14156110da578461108f576001600c600088815260200190815260200160002060000160016101000a81548160ff0219169083600181111561106a57611069614617565b5b021790555082600c6000888152602001908152602001600020600101819055506110d9565b83600c600088815260200190815260200160002060000160006101000a81548160ff02191690831515021790555082600c6000888152602001908152602001600020600101819055505b5b505050505050565b60008073ffffffffffffffffffffffffffffffffffffffff168273ffffffffffffffffffffffffffffffffffffffff161415611153576040517f08c379a000000000000000000000000000000000000000000000000000000000815260040161114a90613fe3565b60405180910390fd5b600460008373ffffffffffffffffffffffffffffffffffffffff1673ffffffffffffffffffffffffffffffffffffffff168152602001908152602001600020549050919050565b600960009054906101000a900473ffffffffffffffffffffffffffffffffffffffff1681565b6060600280546111cf906144dc565b80601f01602080910402602001604051908101604052809291908181526020018280546111fb906144dc565b80156112485780601f1061121d57610100808354040283529160200191611248565b820191906000526020600020905b81548152906001019060200180831161122b57829003601f168201915b5050505050905090565b8061125d60086127ec565b81111561129f576040517f08c379a000000000000000000000000000000000000000000000000000000000815260040161129690613f83565b60405180910390fd5b816001808111156112b3576112b2614617565b5b600c600083815260200190815260200160002060000160019054906101000a900460ff1660018111156112e9576112e8614617565b5b14611329576040517f08c379a0000000000000000000000000000000000000000000000000000000008152600401611320906140a3565b60405180910390fd5b6000600d600085815260200190815260200160002060003373ffffffffffffffffffffffffffffffffffffffff1673ffffffffffffffffffffffffffffffffffffffff1681526020019081526020016000205414156113bd576040517f08c379a00000000000000000000000000000000000000000000000000000000081526004016113b490613fc3565b60405180910390fd5b6000600d600085815260200190815260200160002060003373ffffffffffffffffffffffffffffffffffffffff1673ffffffffffffffffffffffffffffffffffffffff1681526020019081526020016000205490506000600d600086815260200190815260200160002060003373ffffffffffffffffffffffffffffffffffffffff1673ffffffffffffffffffffffffffffffffffffffff168152602001908152602001600020819055503373ffffffffffffffffffffffffffffffffffffffff166108fc829081150290604051600060405180830381858888f193505050501580156114ae573d6000803e3d6000fd5b507fb4b7bfeef342bc38bed50c4af23900b8bfe1ef97943592a983c896816c109d9d3085336040516114e293929190613c7c565b60405180910390a150505050565b806114fb60086127ec565b81111561153d576040517f08c379a000000000000000000000000000000000000000000000000000000000815260040161153490613f83565b60405180910390fd5b8161154781610e65565b73ffffffffffffffffffffffffffffffffffffffff163373ffffffffffffffffffffffffffffffffffffffff1614156115b5576040517f08c379a00000000000000000000000000000000000000000000000000000000081526004016115ac906140e3565b60405180910390fd5b826001808111156115c9576115c8614617565b5b600c600083815260200190815260200160002060000160019054906101000a900460ff1660018111156115ff576115fe614617565b5b1461163f576040517f08c379a0000000000000000000000000000000000000000000000000000000008152600401611636906140a3565b60405180910390fd5b6000600d600086815260200190815260200160002060003373ffffffffffffffffffffffffffffffffffffffff1673ffffffffffffffffffffffffffffffffffffffff16815260200190815260200160002054146116d2576040517f08c379a00000000000000000000000000000000000000000000000000000000081526004016116c990613f23565b60405180910390fd5b600c60008581526020019081526020016000206001015434101561172b576040517f08c379a000000000000000000000000000000000000000000000000000000000815260040161172290614143565b60405180910390fd5b34600d600086815260200190815260200160002060003373ffffffffffffffffffffffffffffffffffffffff1673ffffffffffffffffffffffffffffffffffffffff168152602001908152602001600020819055507f0158f5674dc243762459b88cfc91b10d2d1ef9d40821cca978c2b680aa44468230853364e8d4a51000346117b5919061431e565b6040516117c59493929190613cb3565b60405180910390a150505050565b6117e56117de61242f565b83836127fa565b5050565b6002600054141561182f576040517f08c379a0000000000000000000000000000000000000000000000000000000008152600401611826906141c3565b60405180910390fd5b60026000819055508161184260086127ec565b811115611884576040517f08c379a000000000000000000000000000000000000000000000000000000000815260040161187b90613f83565b60405180910390fd5b8261188e81610e65565b73ffffffffffffffffffffffffffffffffffffffff163373ffffffffffffffffffffffffffffffffffffffff16146118fb576040517f08c379a00000000000000000000000000000000000000000000000000000000081526004016118f290614023565b60405180910390fd5b8360018081111561190f5761190e614617565b5b600c600083815260200190815260200160002060000160019054906101000a900460ff16600181111561194557611944614617565b5b14611985576040517f08c379a000000000000000000000000000000000000000000000000000000000815260040161197c906140a3565b60405180910390fd5b6000600d600087815260200190815260200160002060008673ffffffffffffffffffffffffffffffffffffffff1673ffffffffffffffffffffffffffffffffffffffff168152602001908152602001600020541415611a19576040517f08c379a0000000000000000000000000000000000000000000000000000000008152600401611a1090614043565b60405180910390fd5b600960009054906101000a900473ffffffffffffffffffffffffffffffffffffffff1673ffffffffffffffffffffffffffffffffffffffff166108fc6064600c600089815260200190815260200160002060020154600d60008a815260200190815260200160002060008973ffffffffffffffffffffffffffffffffffffffff1673ffffffffffffffffffffffffffffffffffffffff16815260200190815260200160002054611ac9919061434f565b611ad3919061431e565b9081150290604051600060405180830381858888f19350505050158015611afe573d6000803e3d6000fd5b50600b60009054906101000a900473ffffffffffffffffffffffffffffffffffffffff1673ffffffffffffffffffffffffffffffffffffffff166108fc6064600d600089815260200190815260200160002060008873ffffffffffffffffffffffffffffffffffffffff1673ffffffffffffffffffffffffffffffffffffffff16815260200190815260200160002054611b98919061431e565b9081150290604051600060405180830381858888f19350505050158015611bc3573d6000803e3d6000fd5b50611bcd85610e65565b73ffffffffffffffffffffffffffffffffffffffff166108fc60646001600c60008a8152602001908152602001600020600201546064611c0d91906143a9565b611c1791906143a9565b600d60008a815260200190815260200160002060008973ffffffffffffffffffffffffffffffffffffffff1673ffffffffffffffffffffffffffffffffffffffff16815260200190815260200160002054611c72919061434f565b611c7c919061431e565b9081150290604051600060405180830381858888f19350505050158015611ca7573d6000803e3d6000fd5b50611cb3338587610e45565b7fd150b62f2313c33b378415934acdff9ca2554598f9325710306b1c3e274b741b3086611cdf88610e65565b8764e8d4a51000600d60008c815260200190815260200160002060008b73ffffffffffffffffffffffffffffffffffffffff1673ffffffffffffffffffffffffffffffffffffffff16815260200190815260200160002054611d41919061431e565b604051611d52959493929190613d75565b60405180910390a17fb4b7bfeef342bc38bed50c4af23900b8bfe1ef97943592a983c896816c109d9d308686604051611d8d93929190613c7c565b60405180910390a150505060016000819055505050565b600960009054906101000a900473ffffffffffffffffffffffffffffffffffffffff1673ffffffffffffffffffffffffffffffffffffffff163373ffffffffffffffffffffffffffffffffffffffff1614611e34576040517f08c379a0000000000000000000000000000000000000000000000000000000008152600401611e2b90613fa3565b60405180910390fd5b611e3e6008612967565b6000611e4a60086127ec565b9050611e56338261297d565b611e60818861299b565b8415611e9357611e92600b60009054906101000a900473ffffffffffffffffffffffffffffffffffffffff1682610709565b5b81600e60008381526020019081526020016000209080519060200190611eba9291906130b0565b506040518060800160405280871515815260200186611eda576001611edd565b60005b6001811115611eef57611eee614617565b5b815260200185815260200184815250600c600083815260200190815260200160002060008201518160000160006101000a81548160ff02191690831515021790555060208201518160000160016101000a81548160ff02191690836001811115611f5c57611f5b614617565b5b021790555060408201518160010155606082015181600201559050507f88ababcbfaf84afef06ff7e208affbb3e07eee4832c81797c7ab029bb9212cb130828c8c8c8c604051611fb196959493929190613cf8565b60405180910390a17fd150b62f2313c33b378415934acdff9ca2554598f9325710306b1c3e274b741b30826000336000604051611ff2959493929190613ddb565b60405180910390a150505050505050505050565b61201761201161242f565b836124f0565b612056576040517f08c379a000000000000000000000000000000000000000000000000000000000815260040161204d906141a3565b60405180910390fd5b61206284848484612a0f565b50505050565b6060612073826123e4565b6000600760008481526020019081526020016000208054612093906144dc565b80601f01602080910402602001604051908101604052809291908181526020018280546120bf906144dc565b801561210c5780601f106120e15761010080835404028352916020019161210c565b820191906000526020600020905b8154815290600101906020018083116120ef57829003601f168201915b50505050509050600061211d612a6b565b9050600081511415612133578192505050612176565b600082511115612168578082604051602001612150929190613b91565b60405160208183030381529060405292505050612176565b61217184612a82565b925050505b919050565b6000600660008473ffffffffffffffffffffffffffffffffffffffff1673ffffffffffffffffffffffffffffffffffffffff16815260200190815260200160002060008373ffffffffffffffffffffffffffffffffffffffff1673ffffffffffffffffffffffffffffffffffffffff16815260200190815260200160002060009054906101000a900460ff16905092915050565b60608161221c60086127ec565b81111561225e576040517f08c379a000000000000000000000000000000000000000000000000000000000815260040161225590613f83565b60405180910390fd5b8261226881610e65565b73ffffffffffffffffffffffffffffffffffffffff163373ffffffffffffffffffffffffffffffffffffffff16146122d5576040517f08c379a00000000000000000000000000000000000000000000000000000000081526004016122cc90614023565b60405180910390fd5b600e600085815260200190815260200160002080546122f3906144dc565b80601f016020809104026020016040519081016040528092919081815260200182805461231f906144dc565b801561236c5780601f106123415761010080835404028352916020019161236c565b820191906000526020600020905b81548152906001019060200180831161234f57829003601f168201915b505050505092505050919050565b60007f01ffc9a7000000000000000000000000000000000000000000000000000000007bffffffffffffffffffffffffffffffffffffffffffffffffffffffff1916827bffffffffffffffffffffffffffffffffffffffffffffffffffffffff1916149050919050565b6123ed81612aea565b61242c576040517f08c379a000000000000000000000000000000000000000000000000000000000815260040161242390614123565b60405180910390fd5b50565b600033905090565b816005600083815260200190815260200160002060006101000a81548173ffffffffffffffffffffffffffffffffffffffff021916908373ffffffffffffffffffffffffffffffffffffffff160217905550808273ffffffffffffffffffffffffffffffffffffffff166124aa83610e65565b73ffffffffffffffffffffffffffffffffffffffff167f8c5be1e5ebec7d5bd14f71427d1e84f3dd0314c0f7b2291e5b200ac8c7c3b92560405160405180910390a45050565b6000806124fc83610e65565b90508073ffffffffffffffffffffffffffffffffffffffff168473ffffffffffffffffffffffffffffffffffffffff16148061253e575061253d818561217b565b5b8061257c57508373ffffffffffffffffffffffffffffffffffffffff16612564846106c3565b73ffffffffffffffffffffffffffffffffffffffff16145b91505092915050565b8273ffffffffffffffffffffffffffffffffffffffff166125a582610e65565b73ffffffffffffffffffffffffffffffffffffffff16146125fb576040517f08c379a00000000000000000000000000000000000000000000000000000000081526004016125f290613ee3565b60405180910390fd5b600073ffffffffffffffffffffffffffffffffffffffff168273ffffffffffffffffffffffffffffffffffffffff16141561266b576040517f08c379a000000000000000000000000000000000000000000000000000000000815260040161266290613f43565b60405180910390fd5b612676838383612b56565b612681600082612437565b6001600460008573ffffffffffffffffffffffffffffffffffffffff1673ffffffffffffffffffffffffffffffffffffffff16815260200190815260200160002060008282546126d191906143a9565b925050819055506001600460008473ffffffffffffffffffffffffffffffffffffffff1673ffffffffffffffffffffffffffffffffffffffff168152602001908152602001600020600082825461272891906142c8565b92505081905550816003600083815260200190815260200160002060006101000a81548173ffffffffffffffffffffffffffffffffffffffff021916908373ffffffffffffffffffffffffffffffffffffffff160217905550808273ffffffffffffffffffffffffffffffffffffffff168473ffffffffffffffffffffffffffffffffffffffff167fddf252ad1be2c89b69c2b068fc378daa952ba7f163c4a11628f55a4df523b3ef60405160405180910390a46127e7838383612b5b565b505050565b600081600001549050919050565b8173ffffffffffffffffffffffffffffffffffffffff168373ffffffffffffffffffffffffffffffffffffffff161415612869576040517f08c379a000000000000000000000000000000000000000000000000000000000815260040161286090613f63565b60405180910390fd5b80600660008573ffffffffffffffffffffffffffffffffffffffff1673ffffffffffffffffffffffffffffffffffffffff16815260200190815260200160002060008473ffffffffffffffffffffffffffffffffffffffff1673ffffffffffffffffffffffffffffffffffffffff16815260200190815260200160002060006101000a81548160ff0219169083151502179055508173ffffffffffffffffffffffffffffffffffffffff168373ffffffffffffffffffffffffffffffffffffffff167f17307eab39ab6107e8899845ad3d59bd9653f200f220920489ca2b5937696c318360405161295a9190613e41565b60405180910390a3505050565b6001816000016000828254019250508190555050565b612997828260405180602001604052806000815250612b60565b5050565b6129a482612aea565b6129e3576040517f08c379a00000000000000000000000000000000000000000000000000000000081526004016129da90614003565b60405180910390fd5b80600760008481526020019081526020016000209080519060200190612a0a9291906130b0565b505050565b612a1a848484612585565b612a2684848484612bbb565b612a65576040517f08c379a0000000000000000000000000000000000000000000000000000000008152600401612a5c90613ec3565b60405180910390fd5b50505050565b606060405180602001604052806000815250905090565b6060612a8d826123e4565b6000612a97612a6b565b90506000815111612ab75760405180602001604052806000815250612ae2565b80612ac184612d52565b604051602001612ad2929190613b91565b6040516020818303038152906040525b915050919050565b60008073ffffffffffffffffffffffffffffffffffffffff166003600084815260200190815260200160002060009054906101000a900473ffffffffffffffffffffffffffffffffffffffff1673ffffffffffffffffffffffffffffffffffffffff1614159050919050565b505050565b505050565b612b6a8383612eb3565b612b776000848484612bbb565b612bb6576040517f08c379a0000000000000000000000000000000000000000000000000000000008152600401612bad90613ec3565b60405180910390fd5b505050565b6000612bdc8473ffffffffffffffffffffffffffffffffffffffff1661308d565b15612d45578373ffffffffffffffffffffffffffffffffffffffff1663150b7a02612c0561242f565b8786866040518563ffffffff1660e01b8152600401612c279493929190613c30565b602060405180830381600087803b158015612c4157600080fd5b505af1925050508015612c7257506040513d601f19601f82011682018060405250810190612c6f919061348c565b60015b612cf5573d8060008114612ca2576040519150601f19603f3d011682016040523d82523d6000602084013e612ca7565b606091505b50600081511415612ced576040517f08c379a0000000000000000000000000000000000000000000000000000000008152600401612ce490613ec3565b60405180910390fd5b805181602001fd5b63150b7a0260e01b7bffffffffffffffffffffffffffffffffffffffffffffffffffffffff1916817bffffffffffffffffffffffffffffffffffffffffffffffffffffffff191614915050612d4a565b600190505b949350505050565b60606000821415612d9a576040518060400160405280600181526020017f30000000000000000000000000000000000000000000000000000000000000008152509050612eae565b600082905060005b60008214612dcc578080612db59061453f565b915050600a82612dc5919061431e565b9150612da2565b60008167ffffffffffffffff811115612de857612de76146a4565b5b6040519080825280601f01601f191660200182016040528015612e1a5781602001600182028036833780820191505090505b5090505b60008514612ea757600182612e3391906143a9565b9150600a85612e429190614588565b6030612e4e91906142c8565b60f81b818381518110612e6457612e63614675565b5b60200101907effffffffffffffffffffffffffffffffffffffffffffffffffffffffffffff1916908160001a905350600a85612ea0919061431e565b9450612e1e565b8093505050505b919050565b600073ffffffffffffffffffffffffffffffffffffffff168273ffffffffffffffffffffffffffffffffffffffff161415612f23576040517f08c379a0000000000000000000000000000000000000000000000000000000008152600401612f1a90614083565b60405180910390fd5b612f2c81612aea565b15612f6c576040517f08c379a0000000000000000000000000000000000000000000000000000000008152600401612f6390613f03565b60405180910390fd5b612f7860008383612b56565b6001600460008473ffffffffffffffffffffffffffffffffffffffff1673ffffffffffffffffffffffffffffffffffffffff1681526020019081526020016000206000828254612fc891906142c8565b92505081905550816003600083815260200190815260200160002060006101000a81548173ffffffffffffffffffffffffffffffffffffffff021916908373ffffffffffffffffffffffffffffffffffffffff160217905550808273ffffffffffffffffffffffffffffffffffffffff16600073ffffffffffffffffffffffffffffffffffffffff167fddf252ad1be2c89b69c2b068fc378daa952ba7f163c4a11628f55a4df523b3ef60405160405180910390a461308960008383612b5b565b5050565b6000808273ffffffffffffffffffffffffffffffffffffffff163b119050919050565b8280546130bc906144dc565b90600052602060002090601f0160209004810192826130de5760008555613125565b82601f106130f757805160ff1916838001178555613125565b82800160010185558215613125579182015b82811115613124578251825591602001919060010190613109565b5b5090506131329190613136565b5090565b5b8082111561314f576000816000905550600101613137565b5090565b600061316661316184614223565b6141fe565b905082815260208101848484011115613182576131816146d8565b5b61318d84828561449a565b509392505050565b60006131a86131a384614254565b6141fe565b9050828152602081018484840111156131c4576131c36146d8565b5b6131cf84828561449a565b509392505050565b6000813590506131e681614ec9565b92915050565b6000813590506131fb81614ee0565b92915050565b60008135905061321081614ef7565b92915050565b60008151905061322581614ef7565b92915050565b600082601f8301126132405761323f6146d3565b5b8135613250848260208601613153565b91505092915050565b600082601f83011261326e5761326d6146d3565b5b813561327e848260208601613195565b91505092915050565b60008135905061329681614f0e565b92915050565b6000602082840312156132b2576132b16146e2565b5b60006132c0848285016131d7565b91505092915050565b600080604083850312156132e0576132df6146e2565b5b60006132ee858286016131d7565b92505060206132ff858286016131d7565b9150509250929050565b600080600060608486031215613322576133216146e2565b5b6000613330868287016131d7565b9350506020613341868287016131d7565b925050604061335286828701613287565b9150509250925092565b60008060008060808587031215613376576133756146e2565b5b6000613384878288016131d7565b9450506020613395878288016131d7565b93505060406133a687828801613287565b925050606085013567ffffffffffffffff8111156133c7576133c66146dd565b5b6133d38782880161322b565b91505092959194509250565b600080604083850312156133f6576133f56146e2565b5b6000613404858286016131d7565b9250506020613415858286016131ec565b9150509250929050565b60008060408385031215613436576134356146e2565b5b6000613444858286016131d7565b925050602061345585828601613287565b9150509250929050565b600060208284031215613475576134746146e2565b5b600061348384828501613201565b91505092915050565b6000602082840312156134a2576134a16146e2565b5b60006134b084828501613216565b91505092915050565b60008060008060008060008060006101208a8c0312156134dc576134db6146e2565b5b60008a013567ffffffffffffffff8111156134fa576134f96146dd565b5b6135068c828d01613259565b99505060208a013567ffffffffffffffff811115613527576135266146dd565b5b6135338c828d01613259565b98505060408a013567ffffffffffffffff811115613554576135536146dd565b5b6135608c828d01613259565b97505060608a013567ffffffffffffffff811115613581576135806146dd565b5b61358d8c828d01613259565b965050608061359e8c828d016131ec565b95505060a06135af8c828d016131ec565b94505060c06135c08c828d01613287565b93505060e06135d18c828d01613287565b9250506101008a013567ffffffffffffffff8111156135f3576135f26146dd565b5b6135ff8c828d01613259565b9150509295985092959850929598565b600060208284031215613625576136246146e2565b5b600061363384828501613287565b91505092915050565b60008060408385031215613653576136526146e2565b5b600061366185828601613287565b9250506020613672858286016131d7565b9150509250929050565b60008060008060808587031215613696576136956146e2565b5b60006136a487828801613287565b94505060206136b5878288016131ec565b93505060406136c6878288016131ec565b92505060606136d787828801613287565b91505092959194509250565b6136ec816143ef565b82525050565b6136fb816143dd565b82525050565b61370a81614401565b82525050565b600061371b82614285565b613725818561429b565b93506137358185602086016144a9565b61373e816146e7565b840191505092915050565b61375281614476565b82525050565b61376181614488565b82525050565b600061377282614290565b61377c81856142ac565b935061378c8185602086016144a9565b613795816146e7565b840191505092915050565b60006137ab82614290565b6137b581856142bd565b93506137c58185602086016144a9565b80840191505092915050565b60006137de6004836142ac565b91506137e9826146f8565b602082019050919050565b60006138016032836142ac565b915061380c82614721565b604082019050919050565b60006138246025836142ac565b915061382f82614770565b604082019050919050565b6000613847601c836142ac565b9150613852826147bf565b602082019050919050565b600061386a6043836142ac565b9150613875826147e8565b606082019050919050565b600061388d6024836142ac565b91506138988261485d565b604082019050919050565b60006138b06019836142ac565b91506138bb826148ac565b602082019050919050565b60006138d36039836142ac565b91506138de826148d5565b604082019050919050565b60006138f66034836142ac565b915061390182614924565b604082019050919050565b60006139196024836142ac565b915061392482614973565b604082019050919050565b600061393c6029836142ac565b9150613947826149c2565b604082019050919050565b600061395f602e836142ac565b915061396a82614a11565b604082019050919050565b6000613982602b836142ac565b915061398d82614a60565b604082019050919050565b60006139a56028836142ac565b91506139b082614aaf565b604082019050919050565b60006139c8603e836142ac565b91506139d382614afe565b604082019050919050565b60006139eb6020836142ac565b91506139f682614b4d565b602082019050919050565b6000613a0e602d836142ac565b9150613a1982614b76565b604082019050919050565b6000613a316048836142ac565b9150613a3c82614bc5565b606082019050919050565b6000613a546027836142ac565b9150613a5f82614c3a565b604082019050919050565b6000613a77603a836142ac565b9150613a8282614c89565b604082019050919050565b6000613a9a6018836142ac565b9150613aa582614cd8565b602082019050919050565b6000613abd6047836142ac565b9150613ac882614d01565b606082019050919050565b6000613ae06021836142ac565b9150613aeb82614d76565b604082019050919050565b6000613b03603a836142ac565b9150613b0e82614dc5565b604082019050919050565b6000613b26602e836142ac565b9150613b3182614e14565b604082019050919050565b6000613b49601f836142ac565b9150613b5482614e63565b602082019050919050565b6000613b6c6006836142ac565b9150613b7782614e8c565b602082019050919050565b613b8b8161446c565b82525050565b6000613b9d82856137a0565b9150613ba982846137a0565b91508190509392505050565b6000602082019050613bca60008301846136f2565b92915050565b6000602082019050613be560008301846136e3565b92915050565b6000608082019050613c0060008301876136f2565b613c0d60208301866136f2565b613c1a60408301856136f2565b613c276060830184613b82565b95945050505050565b6000608082019050613c4560008301876136f2565b613c5260208301866136f2565b613c5f6040830185613b82565b8181036060830152613c718184613710565b905095945050505050565b6000606082019050613c9160008301866136f2565b613c9e6020830185613b82565b613cab60408301846136f2565b949350505050565b6000608082019050613cc860008301876136f2565b613cd56020830186613b82565b613ce260408301856136f2565b613cef6060830184613b82565b95945050505050565b600060c082019050613d0d60008301896136f2565b613d1a6020830188613b82565b8181036040830152613d2c8187613767565b90508181036060830152613d408186613767565b90508181036080830152613d548185613767565b905081810360a0830152613d688184613767565b9050979650505050505050565b600060c082019050613d8a60008301886136f2565b613d976020830187613b82565b8181036040830152613da8816137d1565b9050613db760608301866136f2565b613dc460808301856136f2565b613dd160a0830184613b82565b9695505050505050565b600060c082019050613df060008301886136f2565b613dfd6020830187613b82565b8181036040830152613e0e81613b5f565b9050613e1d60608301866136f2565b613e2a60808301856136f2565b613e3760a0830184613758565b9695505050505050565b6000602082019050613e566000830184613701565b92915050565b6000608082019050613e716000830187613701565b613e7e6020830186613749565b613e8b6040830185613b82565b613e986060830184613b82565b95945050505050565b60006020820190508181036000830152613ebb8184613767565b905092915050565b60006020820190508181036000830152613edc816137f4565b9050919050565b60006020820190508181036000830152613efc81613817565b9050919050565b60006020820190508181036000830152613f1c8161383a565b9050919050565b60006020820190508181036000830152613f3c8161385d565b9050919050565b60006020820190508181036000830152613f5c81613880565b9050919050565b60006020820190508181036000830152613f7c816138a3565b9050919050565b60006020820190508181036000830152613f9c816138c6565b9050919050565b60006020820190508181036000830152613fbc816138e9565b9050919050565b60006020820190508181036000830152613fdc8161390c565b9050919050565b60006020820190508181036000830152613ffc8161392f565b9050919050565b6000602082019050818103600083015261401c81613952565b9050919050565b6000602082019050818103600083015261403c81613975565b9050919050565b6000602082019050818103600083015261405c81613998565b9050919050565b6000602082019050818103600083015261407c816139bb565b9050919050565b6000602082019050818103600083015261409c816139de565b9050919050565b600060208201905081810360008301526140bc81613a01565b9050919050565b600060208201905081810360008301526140dc81613a24565b9050919050565b600060208201905081810360008301526140fc81613a47565b9050919050565b6000602082019050818103600083015261411c81613a6a565b9050919050565b6000602082019050818103600083015261413c81613a8d565b9050919050565b6000602082019050818103600083015261415c81613ab0565b9050919050565b6000602082019050818103600083015261417c81613ad3565b9050919050565b6000602082019050818103600083015261419c81613af6565b9050919050565b600060208201905081810360008301526141bc81613b19565b9050919050565b600060208201905081810360008301526141dc81613b3c565b9050919050565b60006020820190506141f86000830184613b82565b92915050565b6000614208614219565b9050614214828261450e565b919050565b6000604051905090565b600067ffffffffffffffff82111561423e5761423d6146a4565b5b614247826146e7565b9050602081019050919050565b600067ffffffffffffffff82111561426f5761426e6146a4565b5b614278826146e7565b9050602081019050919050565b600081519050919050565b600081519050919050565b600082825260208201905092915050565b600082825260208201905092915050565b600081905092915050565b60006142d38261446c565b91506142de8361446c565b9250827fffffffffffffffffffffffffffffffffffffffffffffffffffffffffffffffff03821115614313576143126145b9565b5b828201905092915050565b60006143298261446c565b91506143348361446c565b925082614344576143436145e8565b5b828204905092915050565b600061435a8261446c565b91506143658361446c565b9250817fffffffffffffffffffffffffffffffffffffffffffffffffffffffffffffffff048311821515161561439e5761439d6145b9565b5b828202905092915050565b60006143b48261446c565b91506143bf8361446c565b9250828210156143d2576143d16145b9565b5b828203905092915050565b60006143e88261444c565b9050919050565b60006143fa8261444c565b9050919050565b60008115159050919050565b60007fffffffff0000000000000000000000000000000000000000000000000000000082169050919050565b600081905061444782614eb5565b919050565b600073ffffffffffffffffffffffffffffffffffffffff82169050919050565b6000819050919050565b600061448182614439565b9050919050565b60006144938261446c565b9050919050565b82818337600083830152505050565b60005b838110156144c75780820151818401526020810190506144ac565b838111156144d6576000848401525b50505050565b600060028204905060018216806144f457607f821691505b6020821081141561450857614507614646565b5b50919050565b614517826146e7565b810181811067ffffffffffffffff82111715614536576145356146a4565b5b80604052505050565b600061454a8261446c565b91507fffffffffffffffffffffffffffffffffffffffffffffffffffffffffffffffff82141561457d5761457c6145b9565b5b600182019050919050565b60006145938261446c565b915061459e8361446c565b9250826145ae576145ad6145e8565b5b828206905092915050565b7f4e487b7100000000000000000000000000000000000000000000000000000000600052601160045260246000fd5b7f4e487b7100000000000000000000000000000000000000000000000000000000600052601260045260246000fd5b7f4e487b7100000000000000000000000000000000000000000000000000000000600052602160045260246000fd5b7f4e487b7100000000000000000000000000000000000000000000000000000000600052602260045260246000fd5b7f4e487b7100000000000000000000000000000000000000000000000000000000600052603260045260246000fd5b7f4e487b7100000000000000000000000000000000000000000000000000000000600052604160045260246000fd5b600080fd5b600080fd5b600080fd5b600080fd5b6000601f19601f8301169050919050565b7f536f6c6400000000000000000000000000000000000000000000000000000000600082015250565b7f4552433732313a207472616e7366657220746f206e6f6e20455243373231526560008201527f63656976657220696d706c656d656e7465720000000000000000000000000000602082015250565b7f4552433732313a207472616e736665722066726f6d20696e636f72726563742060008201527f6f776e6572000000000000000000000000000000000000000000000000000000602082015250565b7f4552433732313a20746f6b656e20616c7265616479206d696e74656400000000600082015250565b7f437573746f6d436f6c6c656374696f6e203a20706c616365426964202d3e204360008201527f616e2774206269642074776963652e2043616e63656c2050726576696f75732060208201527f6269640000000000000000000000000000000000000000000000000000000000604082015250565b7f4552433732313a207472616e7366657220746f20746865207a65726f2061646460008201527f7265737300000000000000000000000000000000000000000000000000000000602082015250565b7f4552433732313a20617070726f766520746f2063616c6c657200000000000000600082015250565b7f437573746f6d436f6c6c656374696f6e202d3e20746f6b656e496420646f657360008201527f6e277420636f72726573706f6e6420746f20616e79204e465400000000000000602082015250565b7f437573746f6d436f6c6c656374696f6e203a206d696e74546f6b656e202d3e2060008201527f4e6f7420636f6c6c656374696f6e206f776e6572000000000000000000000000602082015250565b7f437573746f6d436f6c6c656374696f6e202d3e204e6f2062696420627920636160008201527f6c6c657200000000000000000000000000000000000000000000000000000000602082015250565b7f4552433732313a2061646472657373207a65726f206973206e6f74206120766160008201527f6c6964206f776e65720000000000000000000000000000000000000000000000602082015250565b7f45524337323155524953746f726167653a2055524920736574206f66206e6f6e60008201527f6578697374656e7420746f6b656e000000000000000000000000000000000000602082015250565b7f437573746f6d436f6c6c656374696f6e202d3e2043616c6c6572206973206e6f60008201527f74206e6674206f776e6572000000000000000000000000000000000000000000602082015250565b7f437573746f6d436f6c6c656374696f6e202d3e204e6f2062696420627920757360008201527f65722027746f5f27000000000000000000000000000000000000000000000000602082015250565b7f4552433732313a20617070726f76652063616c6c6572206973206e6f7420746f60008201527f6b656e206f776e6572206e6f7220617070726f76656420666f7220616c6c0000602082015250565b7f4552433732313a206d696e7420746f20746865207a65726f2061646472657373600082015250565b7f437573746f6d436f6c6c656374696f6e202d3e204e465420646f65736e27742060008201527f616c6c6f772062696464696e6700000000000000000000000000000000000000602082015250565b7f437573746f6d436f6c6c656374696f6e203a206275794669786564507269636560008201527f4e4654202d3e20506c656173652073656e6420657861637420616d6f756e742060208201527f6173207072696365000000000000000000000000000000000000000000000000604082015250565b7f437573746f6d436f6c6c656374696f6e202d3e2043616c6c6572206973206e6660008201527f74206f776e657200000000000000000000000000000000000000000000000000602082015250565b7f437573746f6d436f6c6c656374696f6e203a206275794669786564507269636560008201527f4e4654202d3e204e4654206973206e6f7420666f722073616c65000000000000602082015250565b7f4552433732313a20696e76616c696420746f6b656e2049440000000000000000600082015250565b7f437573746f6d436f6c6c656374696f6e203a20706c616365426964202d3e204360008201527f616e277420626964206c6f776572207468616e206e66742773206d696e696d7560208201527f6d20707269636500000000000000000000000000000000000000000000000000604082015250565b7f4552433732313a20617070726f76616c20746f2063757272656e74206f776e6560008201527f7200000000000000000000000000000000000000000000000000000000000000602082015250565b7f437573746f6d436f6c6c656374696f6e203a20706c616365426964202d3e204e60008201527f4654206973206c697374656420666f722062696473206f6e6c79000000000000602082015250565b7f4552433732313a2063616c6c6572206973206e6f7420746f6b656e206f776e6560008201527f72206e6f7220617070726f766564000000000000000000000000000000000000602082015250565b7f5265656e7472616e637947756172643a207265656e7472616e742063616c6c00600082015250565b7f4d696e7465640000000000000000000000000000000000000000000000000000600082015250565b60028110614ec657614ec5614617565b5b50565b614ed2816143dd565b8114614edd57600080fd5b50565b614ee981614401565b8114614ef457600080fd5b50565b614f008161440d565b8114614f0b57600080fd5b50565b614f178161446c565b8114614f2257600080fd5b5056fea26469706673582212204c6834755c6eb5c95a8f83e2d2e4b6d2083ed25a15748970618a7320f3c68c0d64736f6c63430008070033a26469706673582212208c9ff750275b3dcc88daf0d6658c9a21cd4216f1b17139370d1356b0e74e200564736f6c63430008070033",
  "immutableReferences": {},
  "source": "// SPDX-License-Identifier: MIT\npragma solidity ^0.8.7;\n\nimport \"./createCollection.sol\";\n\ncontract Exibit {\n    // ** User ** //\n\n    // On user creation\n    event UserCreated(\n        address uAddress,\n        string name,\n        string image,\n        string twitterUrl,\n        string websiteUrl\n    );\n\n    // Create/Update user profile\n    function createUser(\n        string memory name_,\n        string memory image_,\n        string memory twitterUrl_,\n        string memory websiteUrl_\n    ) public {\n        // Map User to address\n        // users[msg.sender] = User(name_, metadata_);\n\n        // Log event to subgraph\n        emit UserCreated(msg.sender, name_, image_, twitterUrl_, websiteUrl_);\n    }\n\n    // ** Custom Collection ** //\n\n    // On collection creation\n    event CollectionCreated(\n        address cAddress,\n        string name,\n        string image,\n        address creator,\n        string metadata\n    );\n\n    // Create and List collection on marketplace\n    function createCollection(\n        string memory name_,\n        string memory symbol_,\n        string memory image_,\n        string memory metadata_\n    ) public {\n        address cAddress = address(\n            new CreateCollection(name_, symbol_, metadata_, msg.sender)\n        );\n\n        // Log event to subgraph\n        emit CollectionCreated(cAddress, name_, image_, msg.sender, metadata_);\n    }\n\n    // To buy fixed price nfts\n    function marketPlaceTransferFrom(\n        address cAddress,\n        address nftOwner,\n        address newOwner,\n        uint256 tokenId\n    ) public {\n        // Check if caller is collection\n        require(\n            msg.sender == cAddress,\n            \"Marketplace : marketPlaceTransferFrom -> Caller is not contract\"\n        );\n\n        CreateCollection(cAddress).safeTransferFrom(\n            nftOwner,\n            newOwner,\n            tokenId\n        );\n    }\n\n    // To receive ether\n    // Function to receive Ether. msg.data must be empty\n    receive() external payable {}\n}\n",
  "sourcePath": "/home/aviral/devLearn/haxxx/nft-marketplace/contracts/Exibit.sol",
  "compiler": {
    "name": "solc",
    "version": "0.8.7+commit.e28d00a7.Emscripten.clang"
  },
  "schemaVersion": "3.4.10",
  "updatedAt": "2022-09-19T15:51:17.656Z",
  "devdoc": {
    "kind": "dev",
    "methods": {},
    "version": 1
  },
  "userdoc": {
    "kind": "user",
    "methods": {},
    "version": 1
  }
}