{
  "contractName": "Pricefeed",
  "abi": [
    {
      "inputs": [],
      "stateMutability": "nonpayable",
      "type": "constructor"
    },
    {
      "inputs": [],
      "name": "getLatestPrice",
      "outputs": [
        {
          "internalType": "int256",
          "name": "",
          "type": "int256"
        }
      ],
      "stateMutability": "view",
      "type": "function"
    }
  ],
  "bytecode": "0x608060405234801561001057600080fd5b50600080546001600160a01b03191673d0d5e3db44de05e9f294bb0a3beeaf030de24ada17905561018b806100466000396000f3fe608060405234801561001057600080fd5b506004361061002b5760003560e01c80638e15f47314610030575b600080fd5b61003861004a565b60405190815260200160405180910390f35b60008060008060008060008054906101000a90046001600160a01b03166001600160a01b031663feaf968c6040518163ffffffff1660e01b815260040160a06040518083038186803b15801561009f57600080fd5b505afa1580156100b3573d6000803e3d6000fd5b505050506040513d601f19601f820116820180604052508101906100d79190610105565b50919998505050505050505050565b805169ffffffffffffffffffff8116811461010057600080fd5b919050565b600080600080600060a0868803121561011d57600080fd5b610126866100e6565b9450602086015193506040860151925060608601519150610149608087016100e6565b9050929550929590935056fea26469706673582212201402f0a19f2e3c69743030e8cbfd2dbe9e35a5b7f6d323c3cb3885806a5094a464736f6c63430008070033",
  "immutableReferences": {},
  "source": "// SPDX-License-Identifier: MIT\npragma solidity ^0.8.7;\n\nimport \"@chainlink/contracts/src/v0.8/interfaces/AggregatorV3Interface.sol\";\n\ncontract Pricefeed {\n    AggregatorV3Interface internal priceFeed;\n\n    /**\n     * Network: Mumbai Testnet\n     * Aggregator: MATIC/USD\n     * Decimal: 8\n     * Address: 0xd0D5e3DB44DE05E9F294BB0a3bEEaF030DE24Ada\n     */\n    constructor() {\n        priceFeed = AggregatorV3Interface(\n            0xd0D5e3DB44DE05E9F294BB0a3bEEaF030DE24Ada\n        );\n    }\n\n    /**\n     * Returns the latest price\n     */\n    function getLatestPrice() public view returns (int) {\n        (\n            uint80 roundID,\n            int price,\n            uint startedAt,\n            uint timeStamp,\n            uint80 answeredInRound\n        ) = priceFeed.latestRoundData();\n        return price;\n    }\n}\n",
  "sourcePath": "/home/aviral/devLearn/haxxx/nft-marketplace/contracts/PriceFeed.sol",
  "compiler": {
    "name": "solc",
    "version": "0.8.7+commit.e28d00a7.Emscripten.clang"
  },
  "schemaVersion": "3.4.10",
  "updatedAt": "2022-09-18T21:01:56.291Z",
  "devdoc": {
    "kind": "dev",
    "methods": {},
    "version": 1
  },
  "userdoc": {
    "kind": "user",
    "methods": {
      "constructor": {
        "notice": "Network: Mumbai Testnet Aggregator: MATIC/USD Decimal: 8 Address: 0xd0D5e3DB44DE05E9F294BB0a3bEEaF030DE24Ada"
      },
      "getLatestPrice()": {
        "notice": "Returns the latest price"
      }
    },
    "version": 1
  }
}